{
  "_format": "hh-sol-artifact-1",
  "contractName": "SJMarketplace",
  "sourceName": "contracts/nfts/SJMarketplace.sol",
  "abi": [
    {
      "anonymous": false,
      "inputs": [
        {
          "indexed": true,
          "internalType": "uint256",
          "name": "itemId",
          "type": "uint256"
        },
        {
          "indexed": true,
          "internalType": "uint256",
          "name": "tokenId",
          "type": "uint256"
        },
        {
          "indexed": false,
          "internalType": "uint256",
          "name": "amount",
          "type": "uint256"
        },
        {
          "indexed": false,
          "internalType": "string",
          "name": "campaignId",
          "type": "string"
        },
        {
          "indexed": false,
          "internalType": "uint256",
          "name": "price",
          "type": "uint256"
        },
        {
          "indexed": true,
          "internalType": "address",
          "name": "nftContract",
          "type": "address"
        },
        {
          "indexed": false,
          "internalType": "address",
          "name": "seller",
          "type": "address"
        },
        {
          "indexed": false,
          "internalType": "address",
          "name": "owner",
          "type": "address"
        },
        {
          "indexed": false,
          "internalType": "bool",
          "name": "sold",
          "type": "bool"
        }
      ],
      "name": "MarketItemCreated",
      "type": "event"
    },
    {
      "anonymous": false,
      "inputs": [
        {
          "indexed": true,
          "internalType": "uint256",
          "name": "itemId",
          "type": "uint256"
        },
        {
          "indexed": true,
          "internalType": "uint256",
          "name": "tokenId",
          "type": "uint256"
        },
        {
          "indexed": true,
          "internalType": "address",
          "name": "nftContract",
          "type": "address"
        }
      ],
      "name": "MarketItemRemoved",
      "type": "event"
    },
    {
      "anonymous": false,
      "inputs": [
        {
          "indexed": true,
          "internalType": "uint256",
          "name": "itemId",
          "type": "uint256"
        },
        {
          "indexed": true,
          "internalType": "uint256",
          "name": "tokenId",
          "type": "uint256"
        },
        {
          "indexed": false,
          "internalType": "uint256",
          "name": "amount",
          "type": "uint256"
        },
        {
          "indexed": false,
          "internalType": "string",
          "name": "campaignId",
          "type": "string"
        },
        {
          "indexed": false,
          "internalType": "uint256",
          "name": "price",
          "type": "uint256"
        },
        {
          "indexed": false,
          "internalType": "address",
          "name": "seller",
          "type": "address"
        },
        {
          "indexed": false,
          "internalType": "address",
          "name": "owner",
          "type": "address"
        },
        {
          "indexed": true,
          "internalType": "address",
          "name": "nftContract",
          "type": "address"
        }
      ],
      "name": "MarketItemSold",
      "type": "event"
    },
    {
      "anonymous": false,
      "inputs": [
        {
          "indexed": true,
          "internalType": "address",
          "name": "previousOwner",
          "type": "address"
        },
        {
          "indexed": true,
          "internalType": "address",
          "name": "newOwner",
          "type": "address"
        }
      ],
      "name": "OwnershipTransferred",
      "type": "event"
    },
    {
      "inputs": [
        {
          "internalType": "address",
          "name": "nftContract",
          "type": "address"
        },
        {
          "internalType": "string",
          "name": "campaignId",
          "type": "string"
        },
        {
          "internalType": "uint256",
          "name": "amount",
          "type": "uint256"
        },
        {
          "internalType": "uint256",
          "name": "price",
          "type": "uint256"
        }
      ],
      "name": "createMarketItem",
      "outputs": [],
      "stateMutability": "nonpayable",
      "type": "function"
    },
    {
      "inputs": [
        {
          "internalType": "address",
          "name": "nftContract",
          "type": "address"
        },
        {
          "internalType": "uint256",
          "name": "itemId",
          "type": "uint256"
        }
      ],
      "name": "createMarketSale",
      "outputs": [],
      "stateMutability": "nonpayable",
      "type": "function"
    },
    {
      "inputs": [],
      "name": "fetchItemsCreated",
      "outputs": [
        {
          "components": [
            {
              "internalType": "uint256",
              "name": "itemId",
              "type": "uint256"
            },
            {
              "internalType": "uint256",
              "name": "tokenId",
              "type": "uint256"
            },
            {
              "internalType": "uint256",
              "name": "amount",
              "type": "uint256"
            },
            {
              "internalType": "string",
              "name": "campaignId",
              "type": "string"
            },
            {
              "internalType": "uint256",
              "name": "price",
              "type": "uint256"
            },
            {
              "internalType": "address",
              "name": "nftContract",
              "type": "address"
            },
            {
              "internalType": "address payable",
              "name": "seller",
              "type": "address"
            },
            {
              "internalType": "address payable",
              "name": "owner",
              "type": "address"
            },
            {
              "internalType": "bool",
              "name": "sold",
              "type": "bool"
            }
          ],
          "internalType": "struct SJMarketplace.MarketItem[]",
          "name": "",
          "type": "tuple[]"
        }
      ],
      "stateMutability": "view",
      "type": "function"
    },
    {
      "inputs": [],
      "name": "fetchMarketItems",
      "outputs": [
        {
          "components": [
            {
              "internalType": "uint256",
              "name": "itemId",
              "type": "uint256"
            },
            {
              "internalType": "uint256",
              "name": "tokenId",
              "type": "uint256"
            },
            {
              "internalType": "uint256",
              "name": "amount",
              "type": "uint256"
            },
            {
              "internalType": "string",
              "name": "campaignId",
              "type": "string"
            },
            {
              "internalType": "uint256",
              "name": "price",
              "type": "uint256"
            },
            {
              "internalType": "address",
              "name": "nftContract",
              "type": "address"
            },
            {
              "internalType": "address payable",
              "name": "seller",
              "type": "address"
            },
            {
              "internalType": "address payable",
              "name": "owner",
              "type": "address"
            },
            {
              "internalType": "bool",
              "name": "sold",
              "type": "bool"
            }
          ],
          "internalType": "struct SJMarketplace.MarketItem[]",
          "name": "",
          "type": "tuple[]"
        }
      ],
      "stateMutability": "view",
      "type": "function"
    },
    {
      "inputs": [],
      "name": "fetchMyNFTs",
      "outputs": [
        {
          "components": [
            {
              "internalType": "uint256",
              "name": "itemId",
              "type": "uint256"
            },
            {
              "internalType": "uint256",
              "name": "tokenId",
              "type": "uint256"
            },
            {
              "internalType": "uint256",
              "name": "amount",
              "type": "uint256"
            },
            {
              "internalType": "string",
              "name": "campaignId",
              "type": "string"
            },
            {
              "internalType": "uint256",
              "name": "price",
              "type": "uint256"
            },
            {
              "internalType": "address",
              "name": "nftContract",
              "type": "address"
            },
            {
              "internalType": "address payable",
              "name": "seller",
              "type": "address"
            },
            {
              "internalType": "address payable",
              "name": "owner",
              "type": "address"
            },
            {
              "internalType": "bool",
              "name": "sold",
              "type": "bool"
            }
          ],
          "internalType": "struct SJMarketplace.MarketItem[]",
          "name": "",
          "type": "tuple[]"
        }
      ],
      "stateMutability": "view",
      "type": "function"
    },
    {
      "inputs": [
        {
          "internalType": "uint256",
          "name": "itemId",
          "type": "uint256"
        }
      ],
      "name": "getItemById",
      "outputs": [
        {
          "components": [
            {
              "internalType": "uint256",
              "name": "itemId",
              "type": "uint256"
            },
            {
              "internalType": "uint256",
              "name": "tokenId",
              "type": "uint256"
            },
            {
              "internalType": "uint256",
              "name": "amount",
              "type": "uint256"
            },
            {
              "internalType": "string",
              "name": "campaignId",
              "type": "string"
            },
            {
              "internalType": "uint256",
              "name": "price",
              "type": "uint256"
            },
            {
              "internalType": "address",
              "name": "nftContract",
              "type": "address"
            },
            {
              "internalType": "address payable",
              "name": "seller",
              "type": "address"
            },
            {
              "internalType": "address payable",
              "name": "owner",
              "type": "address"
            },
            {
              "internalType": "bool",
              "name": "sold",
              "type": "bool"
            }
          ],
          "internalType": "struct SJMarketplace.MarketItem",
          "name": "",
          "type": "tuple"
        }
      ],
      "stateMutability": "view",
      "type": "function"
    },
    {
      "inputs": [],
      "name": "isMarketOpen",
      "outputs": [
        {
          "internalType": "bool",
          "name": "",
          "type": "bool"
        }
      ],
      "stateMutability": "view",
      "type": "function"
    },
    {
      "inputs": [
        {
          "internalType": "address",
          "name": "operator",
          "type": "address"
        },
        {
          "internalType": "address",
          "name": "from",
          "type": "address"
        },
        {
          "internalType": "uint256[]",
          "name": "ids",
          "type": "uint256[]"
        },
        {
          "internalType": "uint256[]",
          "name": "values",
          "type": "uint256[]"
        },
        {
          "internalType": "bytes",
          "name": "data",
          "type": "bytes"
        }
      ],
      "name": "onERC1155BatchReceived",
      "outputs": [
        {
          "internalType": "bytes4",
          "name": "",
          "type": "bytes4"
        }
      ],
      "stateMutability": "nonpayable",
      "type": "function"
    },
    {
      "inputs": [
        {
          "internalType": "address",
          "name": "operator",
          "type": "address"
        },
        {
          "internalType": "address",
          "name": "from",
          "type": "address"
        },
        {
          "internalType": "uint256",
          "name": "id",
          "type": "uint256"
        },
        {
          "internalType": "uint256",
          "name": "value",
          "type": "uint256"
        },
        {
          "internalType": "bytes",
          "name": "data",
          "type": "bytes"
        }
      ],
      "name": "onERC1155Received",
      "outputs": [
        {
          "internalType": "bytes4",
          "name": "",
          "type": "bytes4"
        }
      ],
      "stateMutability": "nonpayable",
      "type": "function"
    },
    {
      "inputs": [],
      "name": "owner",
      "outputs": [
        {
          "internalType": "address",
          "name": "",
          "type": "address"
        }
      ],
      "stateMutability": "view",
      "type": "function"
    },
    {
      "inputs": [
        {
          "internalType": "address",
          "name": "_nftContract",
          "type": "address"
        }
      ],
      "name": "removeAcceptNFTContract",
      "outputs": [],
      "stateMutability": "nonpayable",
      "type": "function"
    },
    {
      "inputs": [
        {
          "internalType": "address",
          "name": "nftContract",
          "type": "address"
        },
        {
          "internalType": "uint256",
          "name": "itemId",
          "type": "uint256"
        }
      ],
      "name": "removeMarketItem",
      "outputs": [],
      "stateMutability": "nonpayable",
      "type": "function"
    },
    {
      "inputs": [],
      "name": "renounceOwnership",
      "outputs": [],
      "stateMutability": "nonpayable",
      "type": "function"
    },
    {
      "inputs": [
        {
          "internalType": "address",
          "name": "_nftContract",
          "type": "address"
        }
      ],
      "name": "setAcceptNFTContract",
      "outputs": [],
      "stateMutability": "nonpayable",
      "type": "function"
    },
    {
      "inputs": [
        {
          "internalType": "bool",
          "name": "_isOpen",
          "type": "bool"
        }
      ],
      "name": "setMarketOpen",
      "outputs": [],
      "stateMutability": "nonpayable",
      "type": "function"
    },
    {
      "inputs": [
        {
          "internalType": "uint256",
          "name": "_removingPrice",
          "type": "uint256"
        }
      ],
      "name": "setRemovingPrice",
      "outputs": [],
      "stateMutability": "nonpayable",
      "type": "function"
    },
    {
      "inputs": [
        {
          "internalType": "uint8",
          "name": "_percent",
          "type": "uint8"
        }
      ],
      "name": "setSellPercentFee",
      "outputs": [],
      "stateMutability": "nonpayable",
      "type": "function"
    },
    {
      "inputs": [
        {
          "internalType": "address",
          "name": "_tokenContract",
          "type": "address"
        }
      ],
      "name": "setTokenContract",
      "outputs": [],
      "stateMutability": "nonpayable",
      "type": "function"
    },
    {
      "inputs": [
        {
          "internalType": "bytes4",
          "name": "interfaceId",
          "type": "bytes4"
        }
      ],
      "name": "supportsInterface",
      "outputs": [
        {
          "internalType": "bool",
          "name": "",
          "type": "bool"
        }
      ],
      "stateMutability": "view",
      "type": "function"
    },
    {
      "inputs": [
        {
          "internalType": "address",
          "name": "newOwner",
          "type": "address"
        }
      ],
      "name": "transferOwnership",
      "outputs": [],
      "stateMutability": "nonpayable",
      "type": "function"
    }
  ],
  "bytecode": "0x60806040526004805460ff60ff60a81b011916600560a91b179055671bc16d674ec8000060055534801561003257600080fd5b50600160005561004133610046565b610098565b600180546001600160a01b038381166001600160a01b0319831681179093556040519116919082907f8be0079c531659141344cd1fd0a4f28419497f9722a3daafe3b4186f6b6457e090600090a35050565b6125bc806100a76000396000f3fe608060405234801561001057600080fd5b506004361061012c5760003560e01c8063bbcd5bbe116100ad578063d4ce85f311610071578063d4ce85f3146102b8578063da55e51e146102c5578063f064c32e146102d8578063f23a6e61146102e0578063f2fde38b146102f357600080fd5b8063bbcd5bbe1461020b578063bc197c811461021e578063c23b139e14610272578063cb54f41814610285578063cd2f07101461029857600080fd5b806369feccff116100f457806369feccff146101af5780636f9099ab146101c2578063715018a6146101d5578063841dfeed146101dd5780638da5cb5b146101f057600080fd5b806301ffc9a71461013157806309ef2ed51461016a5780630f08efe01461017f578063202e37401461019457806357e8e3701461019c575b600080fd5b61015561013f366004611cd0565b6001600160e01b031916636cdb3d1360e11b1490565b60405190151581526020015b60405180910390f35b61017d610178366004611d0f565b610306565b005b61018761034c565b6040516101619190611e18565b6101876105b3565b61017d6101aa366004611e96565b610821565b61017d6101bd366004611eb1565b61086c565b61017d6101d0366004611edb565b610c1f565b61017d610c4e565b61017d6101eb366004611ef4565b610c84565b6001546040516001600160a01b039091168152602001610161565b61017d610219366004611e96565b610d18565b61025961022c366004611fa5565b7fbc197c819b3e337a6f9652dd10becd7eef83032af3b9d958d3d42f669414662198975050505050505050565b6040516001600160e01b03199091168152602001610161565b61017d610280366004611eb1565b610d6a565b61017d610293366004611e96565b6112a5565b6102ab6102a6366004611edb565b6112f3565b6040516101619190612060565b6004546101559060ff1681565b61017d6102d3366004612089565b61141b565b6101876117d8565b6102596102ee36600461215b565b611a46565b61017d610301366004611e96565b611a72565b6001546001600160a01b031633146103395760405162461bcd60e51b8152600401610330906121d3565b60405180910390fd5b6004805460ff1916911515919091179055565b6060600061035960025490565b9050600061036660035490565b600254610373919061221e565b90506000808267ffffffffffffffff81111561039157610391612073565b6040519080825280602002602001820160405280156103ca57816020015b6103b7611b94565b8152602001906001900390816103af5790505b50905060005b848110156105aa57600660006103e7836001612235565b8152602081019190915260400160002060070154600160a01b900460ff1615801561043d5750600060068161041d846001612235565b81526020810191909152604001600020600601546001600160a01b031614155b15610598576000600681610452846001612235565b81526020019081526020016000209050806040518061012001604052908160008201548152602001600182015481526020016002820154815260200160038201805461049d9061224d565b80601f01602080910402602001604051908101604052809291908181526020018280546104c99061224d565b80156105165780601f106104eb57610100808354040283529160200191610516565b820191906000526020600020905b8154815290600101906020018083116104f957829003601f168201915b50505091835250506004820154602082015260058201546001600160a01b0390811660408301526006830154811660608301526007909201549182166080820152600160a01b90910460ff16151560a090910152835184908690811061057e5761057e612288565b6020908102919091010152610594600185612235565b9350505b806105a28161229e565b9150506103d0565b50949350505050565b606060006105c060025490565b905060008060005b838110156106235733600660006105e0846001612235565b81526020810191909152604001600020600701546001600160a01b031614156106115761060e600184612235565b92505b8061061b8161229e565b9150506105c8565b5060008267ffffffffffffffff81111561063f5761063f612073565b60405190808252806020026020018201604052801561067857816020015b610665611b94565b81526020019060019003908161065d5790505b50905060005b848110156105aa573360066000610696846001612235565b81526020810191909152604001600020600701546001600160a01b0316141561080f5760006006816106c9846001612235565b8152602001908152602001600020905080604051806101200160405290816000820154815260200160018201548152602001600282015481526020016003820180546107149061224d565b80601f01602080910402602001604051908101604052809291908181526020018280546107409061224d565b801561078d5780601f106107625761010080835404028352916020019161078d565b820191906000526020600020905b81548152906001019060200180831161077057829003601f168201915b50505091835250506004820154602082015260058201546001600160a01b0390811660408301526006830154811660608301526007909201549182166080820152600160a01b90910460ff16151560a09091015283518490869081106107f5576107f5612288565b602090810291909101015261080b600185612235565b9350505b806108198161229e565b91505061067e565b6001546001600160a01b0316331461084b5760405162461bcd60e51b8152600401610330906121d3565b6001600160a01b03166000908152600760205260409020805460ff19169055565b6002600054141561088f5760405162461bcd60e51b8152600401610330906122b9565b600260009081556001600160a01b03831681526007602052604090205460ff166109105760405162461bcd60e51b815260206004820152602c60248201527f54686973204e4654206973206e6f742061636365707461626c6520746f20736560448201526b1b1b081bdb881b585c9ad95d60a21b6064820152608401610330565b61091981611b0d565b6109655760405162461bcd60e51b815260206004820152601860248201527f596f75277265206e6f74206f776e2074686973206974656d00000000000000006044820152606401610330565b600554600480546040516370a0823160e01b8152339281019290925261010090046001600160a01b0316906370a082319060240160206040518083038186803b1580156109b157600080fd5b505afa1580156109c5573d6000803e3d6000fd5b505050506040513d601f19601f820116820180604052508101906109e991906122f0565b1015610a555760405162461bcd60e51b815260206004820152603560248201527f596f75722062616c616e6365206973206e6f7420656e6f75676820746f2072656044820152741b5bdd99481a5d195b48199c9bdb481b585c9ad95d605a1b6064820152608401610330565b60008181526006602052604090819020600181015460028201549251637921219560e11b815291926001600160a01b0386169263f242432a92610aa092309233929190600401612309565b600060405180830381600087803b158015610aba57600080fd5b505af1158015610ace573d6000803e3d6000fd5b50506004546001600160a01b036101009091041691506323b872dd905033610afe6001546001600160a01b031690565b6005546040518463ffffffff1660e01b8152600401610b1f9392919061234e565b602060405180830381600087803b158015610b3957600080fd5b505af1158015610b4d573d6000803e3d6000fd5b505050506040513d601f19601f82011682018060405250810190610b719190612372565b506000828152600660205260408120818155600181018290556002810182905590610b9f6003830182611bfd565b506000600482018190556005820180546001600160a01b03199081169091556006830180549091169055600790910180546001600160a81b031916905560018201546040516001600160a01b0386169285917fe4e947478dd6f84d7b92105655bb665ffad8bf14be63f7e94930ffb7f37078859190a45050600160005550565b6001546001600160a01b03163314610c495760405162461bcd60e51b8152600401610330906121d3565b600555565b6001546001600160a01b03163314610c785760405162461bcd60e51b8152600401610330906121d3565b610c826000611b42565b565b6001546001600160a01b03163314610cae5760405162461bcd60e51b8152600401610330906121d3565b60648160ff161115610cf85760405162461bcd60e51b8152602060048201526013602482015272496e76616c69642070657263656e746167652160681b6044820152606401610330565b6004805460ff909216600160a81b0260ff60a81b19909216919091179055565b6001546001600160a01b03163314610d425760405162461bcd60e51b8152600401610330906121d3565b600480546001600160a01b0390921661010002610100600160a81b0319909216919091179055565b60026000541415610d8d5760405162461bcd60e51b8152600401610330906122b9565b6002600090815581815260066020526040902060045460ff16610dc25760405162461bcd60e51b81526004016103309061238f565b6001600160a01b03831660009081526007602052604090205460ff16610dfa5760405162461bcd60e51b8152600401610330906123e0565b600082815260066020819052604090912001546001600160a01b0316331415610e655760405162461bcd60e51b815260206004820152601860248201527f596f752063616e6e6f742062757920796f7572206974656d00000000000000006044820152606401610330565b600082815260066020526040902060040154610ecf5760405162461bcd60e51b8152602060048201526024808201527f496e76616c6964207072696365206f72206974656d20646f6573206e6f7420656044820152631e1a5cdd60e21b6064820152608401610330565b600082815260066020526040902060070154600160a01b900460ff1615610f385760405162461bcd60e51b815260206004820152601860248201527f54686973206974656d20686173206265656e20736f6c642100000000000000006044820152606401610330565b600454600160a81b900460ff16156110c5576000600460159054906101000a900460ff1660ff168260040154610f6e919061242d565b6004805460008681526006602081905260409091200154918501549293506001600160a01b036101009091048116926323b872dd9233921690610fb290869061221e565b6040518463ffffffff1660e01b8152600401610fd09392919061234e565b602060405180830381600087803b158015610fea57600080fd5b505af1158015610ffe573d6000803e3d6000fd5b505050506040513d601f19601f820116820180604052508101906110229190612372565b506004546001600160a01b03610100909104166323b872dd3361104d6001546001600160a01b031690565b846040518463ffffffff1660e01b815260040161106c9392919061234e565b602060405180830381600087803b15801561108657600080fd5b505af115801561109a573d6000803e3d6000fd5b505050506040513d601f19601f820116820180604052508101906110be9190612372565b5050611166565b6004546001600160a01b03610100909104166323b872dd336110ef6001546001600160a01b031690565b84600401546040518463ffffffff1660e01b81526004016111129392919061234e565b602060405180830381600087803b15801561112c57600080fd5b505af1158015611140573d6000803e3d6000fd5b505050506040513d601f19601f820116820180604052508101906111649190612372565b505b60018101546002820154604051637921219560e11b81523060048201523360248201526044810192909252606482015260a06084820152600560a482015264030783030360dc1b60c48201526001600160a01b0384169063f242432a9060e401600060405180830381600087803b1580156111e057600080fd5b505af11580156111f4573d6000803e3d6000fd5b5050506000838152600660205260409020600701805460ff60a01b1933166001600160a81b031990911617600160a01b17905550611236600380546001019055565b60018101546002820154600483015460068401546040516001600160a01b03808916959488947fb3665ed27728512753feb8fd3bf18e1d679b393c0211591ac05bd627cafebc189461129394929360038b0193911690339061244f565b60405180910390a45050600160005550565b6001546001600160a01b031633146112cf5760405162461bcd60e51b8152600401610330906121d3565b6001600160a01b03166000908152600760205260409020805460ff19166001179055565b6112fb611b94565b60066000838152602001908152602001600020604051806101200160405290816000820154815260200160018201548152602001600282015481526020016003820180546113489061224d565b80601f01602080910402602001604051908101604052809291908181526020018280546113749061224d565b80156113c15780601f10611396576101008083540402835291602001916113c1565b820191906000526020600020905b8154815290600101906020018083116113a457829003601f168201915b50505091835250506004820154602082015260058201546001600160a01b0390811660408301526006830154811660608301526007909201549182166080820152600160a01b90910460ff16151560a09091015292915050565b6002600054141561143e5760405162461bcd60e51b8152600401610330906122b9565b600260005560045460ff166114655760405162461bcd60e51b81526004016103309061238f565b600081116114b55760405162461bcd60e51b815260206004820152601c60248201527f5072696365206d757374206265206174206c65617374203120776569000000006044820152606401610330565b6001600160a01b03841660009081526007602052604090205460ff166114ed5760405162461bcd60e51b8152600401610330906123e0565b60045461010090046001600160a01b03166115435760405162461bcd60e51b8152602060048201526016602482015275151bdad95b8818dbdb9d1c9858dd081a5cc81b9d5b1b60521b6044820152606401610330565b611551600280546001019055565b600061155c60025490565b90506000856001600160a01b0316636f5f4c4f866040518263ffffffff1660e01b815260040161158c9190612529565b60206040518083038186803b1580156115a457600080fd5b505afa1580156115b8573d6000803e3d6000fd5b505050506040513d601f19601f820116820180604052508101906115dc91906122f0565b9050806116205760405162461bcd60e51b8152602060048201526012602482015271151bdad95b881a5cc81b9bdd08195e1a5cdd60721b6044820152606401610330565b60408051610120810182528381526020808201848152828401888152606084018a8152608085018990526001600160a01b038c1660a08601523360c0860152600060e08601819052610100860181905288815260068552959095208451815591516001830155516002820155925180519293926116a39260038501920190611c37565b50608082015160048083019190915560a08301516005830180546001600160a01b039283166001600160a01b03199182161790915560c08501516006850180549184169190921617905560e084015160079093018054610100909501511515600160a01b026001600160a81b03199095169382169390931793909317909155604051637921219560e11b81529188169163f242432a9161174b913391309187918b9101612309565b600060405180830381600087803b15801561176557600080fd5b505af1158015611779573d6000803e3d6000fd5b50505050856001600160a01b031681837fbca4157eb99d35267e6d0f40e4a5c9e566ad38c2af285815e3ea4e6e463fcb3a878988336000806040516117c39695949392919061253c565b60405180910390a45050600160005550505050565b606060006117e560025490565b905060008060005b83811015611848573360066000611805846001612235565b81526020810191909152604001600020600601546001600160a01b0316141561183657611833600184612235565b92505b806118408161229e565b9150506117ed565b5060008267ffffffffffffffff81111561186457611864612073565b60405190808252806020026020018201604052801561189d57816020015b61188a611b94565b8152602001906001900390816118825790505b50905060005b848110156105aa5733600660006118bb846001612235565b81526020810191909152604001600020600601546001600160a01b03161415611a345760006006816118ee846001612235565b8152602001908152602001600020905080604051806101200160405290816000820154815260200160018201548152602001600282015481526020016003820180546119399061224d565b80601f01602080910402602001604051908101604052809291908181526020018280546119659061224d565b80156119b25780601f10611987576101008083540402835291602001916119b2565b820191906000526020600020905b81548152906001019060200180831161199557829003601f168201915b50505091835250506004820154602082015260058201546001600160a01b0390811660408301526006830154811660608301526007909201549182166080820152600160a01b90910460ff16151560a0909101528351849086908110611a1a57611a1a612288565b6020908102919091010152611a30600185612235565b9350505b80611a3e8161229e565b9150506118a3565b7ff23a6e612e1ff4830e658fe43f4e3cb4a5f8170bd5d9e69fb5d7a7fa9e4fdf975b9695505050505050565b6001546001600160a01b03163314611a9c5760405162461bcd60e51b8152600401610330906121d3565b6001600160a01b038116611b015760405162461bcd60e51b815260206004820152602660248201527f4f776e61626c653a206e6577206f776e657220697320746865207a65726f206160448201526564647265737360d01b6064820152608401610330565b611b0a81611b42565b50565b6000818152600660208190526040822001546001600160a01b031633811415611b395750600192915050565b50600092915050565b600180546001600160a01b038381166001600160a01b0319831681179093556040519116919082907f8be0079c531659141344cd1fd0a4f28419497f9722a3daafe3b4186f6b6457e090600090a35050565b604051806101200160405280600081526020016000815260200160008152602001606081526020016000815260200160006001600160a01b0316815260200160006001600160a01b0316815260200160006001600160a01b031681526020016000151581525090565b508054611c099061224d565b6000825580601f10611c19575050565b601f016020900490600052602060002090810190611b0a9190611cbb565b828054611c439061224d565b90600052602060002090601f016020900481019282611c655760008555611cab565b82601f10611c7e57805160ff1916838001178555611cab565b82800160010185558215611cab579182015b82811115611cab578251825591602001919060010190611c90565b50611cb7929150611cbb565b5090565b5b80821115611cb75760008155600101611cbc565b600060208284031215611ce257600080fd5b81356001600160e01b031981168114611cfa57600080fd5b9392505050565b8015158114611b0a57600080fd5b600060208284031215611d2157600080fd5b8135611cfa81611d01565b6000815180845260005b81811015611d5257602081850181015186830182015201611d36565b81811115611d64576000602083870101525b50601f01601f19169290920160200192915050565b60006101208251845260208301516020850152604083015160408501526060830151816060860152611dad82860182611d2c565b9150506080830151608085015260018060a01b0360a08401511660a085015260c0830151611de660c08601826001600160a01b03169052565b5060e0830151611e0160e08601826001600160a01b03169052565b506101009283015115159390920192909252919050565b6000602080830181845280855180835260408601915060408160051b870101925083870160005b82811015611e6d57603f19888603018452611e5b858351611d79565b94509285019290850190600101611e3f565b5092979650505050505050565b80356001600160a01b0381168114611e9157600080fd5b919050565b600060208284031215611ea857600080fd5b611cfa82611e7a565b60008060408385031215611ec457600080fd5b611ecd83611e7a565b946020939093013593505050565b600060208284031215611eed57600080fd5b5035919050565b600060208284031215611f0657600080fd5b813560ff81168114611cfa57600080fd5b60008083601f840112611f2957600080fd5b50813567ffffffffffffffff811115611f4157600080fd5b6020830191508360208260051b8501011115611f5c57600080fd5b9250929050565b60008083601f840112611f7557600080fd5b50813567ffffffffffffffff811115611f8d57600080fd5b602083019150836020828501011115611f5c57600080fd5b60008060008060008060008060a0898b031215611fc157600080fd5b611fca89611e7a565b9750611fd860208a01611e7a565b9650604089013567ffffffffffffffff80821115611ff557600080fd5b6120018c838d01611f17565b909850965060608b013591508082111561201a57600080fd5b6120268c838d01611f17565b909650945060808b013591508082111561203f57600080fd5b5061204c8b828c01611f63565b999c989b5096995094979396929594505050565b602081526000611cfa6020830184611d79565b634e487b7160e01b600052604160045260246000fd5b6000806000806080858703121561209f57600080fd5b6120a885611e7a565b9350602085013567ffffffffffffffff808211156120c557600080fd5b818701915087601f8301126120d957600080fd5b8135818111156120eb576120eb612073565b604051601f8201601f19908116603f0116810190838211818310171561211357612113612073565b816040528281528a602084870101111561212c57600080fd5b826020860160208301376000928101602001929092525095989597505050506040840135936060013592915050565b60008060008060008060a0878903121561217457600080fd5b61217d87611e7a565b955061218b60208801611e7a565b94506040870135935060608701359250608087013567ffffffffffffffff8111156121b557600080fd5b6121c189828a01611f63565b979a9699509497509295939492505050565b6020808252818101527f4f776e61626c653a2063616c6c6572206973206e6f7420746865206f776e6572604082015260600190565b634e487b7160e01b600052601160045260246000fd5b60008282101561223057612230612208565b500390565b6000821982111561224857612248612208565b500190565b600181811c9082168061226157607f821691505b6020821081141561228257634e487b7160e01b600052602260045260246000fd5b50919050565b634e487b7160e01b600052603260045260246000fd5b60006000198214156122b2576122b2612208565b5060010190565b6020808252601f908201527f5265656e7472616e637947756172643a207265656e7472616e742063616c6c00604082015260600190565b60006020828403121561230257600080fd5b5051919050565b6001600160a01b0394851681529290931660208301526040820152606081019190915260a060808201819052600490820152630307830360e41b60c082015260e00190565b6001600160a01b039384168152919092166020820152604081019190915260600190565b60006020828403121561238457600080fd5b8151611cfa81611d01565b60208082526031908201527f546865204d61726b6574206973206e6f7720636c6f7365642120506c656173656040820152702074727920616761696e206c617465722160781b606082015260800190565b6020808252602d908201527f54686973204e4654206973206e6f742061636365707461626c6520746f20736560408201526c1b1b081bdb881b585c9d1ad95d609a1b606082015260800190565b60008261244a57634e487b7160e01b600052601260045260246000fd5b500490565b8581526000602060a0818401526000875481600182811c91508083168061247757607f831692505b85831081141561249557634e487b7160e01b85526022600452602485fd5b60a0880183905260c088018180156124b457600181146124c5576124f0565b60ff198616825287820196506124f0565b60008e81526020902060005b868110156124ea578154848201529085019089016124d1565b83019750505b505050505060408501889052506001600160a01b038616606085015291506125159050565b6001600160a01b0383166080830152611a68565b602081526000611cfa6020830184611d2c565b86815260c06020820152600061255560c0830188611d2c565b6040830196909652506001600160a01b03938416606082015291909216608082015290151560a0909101529291505056fea26469706673582212204f1f6698b8a9fc68a7bae177912b6fd405f172acdb8e3075b82fa208b45dd1cd64736f6c63430008090033",
  "linkReferences": {},
  "deployedLinkReferences": {}
}