{
  "_format": "hh-sol-artifact-1",
  "contractName": "SJFractions",
  "sourceName": "contracts/nfts/SJFractions.sol",
  "abi": [
    {
      "inputs": [
        {
          "internalType": "string",
          "name": "_name",
          "type": "string"
        },
        {
          "internalType": "string",
          "name": "_symbol",
          "type": "string"
        }
      ],
      "stateMutability": "nonpayable",
      "type": "constructor"
    },
    {
      "anonymous": false,
      "inputs": [
        {
          "indexed": true,
          "internalType": "address",
          "name": "account",
          "type": "address"
        },
        {
          "indexed": true,
          "internalType": "address",
          "name": "operator",
          "type": "address"
        },
        {
          "indexed": false,
          "internalType": "bool",
          "name": "approved",
          "type": "bool"
        }
      ],
      "name": "ApprovalForAll",
      "type": "event"
    },
    {
      "anonymous": false,
      "inputs": [
        {
          "indexed": false,
          "internalType": "uint256",
          "name": "itemId",
          "type": "uint256"
        },
        {
          "indexed": false,
          "internalType": "string",
          "name": "campaignId",
          "type": "string"
        },
        {
          "indexed": false,
          "internalType": "uint256",
          "name": "amount",
          "type": "uint256"
        }
      ],
      "name": "MintItem",
      "type": "event"
    },
    {
      "anonymous": false,
      "inputs": [
        {
          "indexed": true,
          "internalType": "address",
          "name": "previousOwner",
          "type": "address"
        },
        {
          "indexed": true,
          "internalType": "address",
          "name": "newOwner",
          "type": "address"
        }
      ],
      "name": "OwnershipTransferred",
      "type": "event"
    },
    {
      "anonymous": false,
      "inputs": [
        {
          "indexed": false,
          "internalType": "address",
          "name": "account",
          "type": "address"
        }
      ],
      "name": "Paused",
      "type": "event"
    },
    {
      "anonymous": false,
      "inputs": [
        {
          "indexed": true,
          "internalType": "address",
          "name": "operator",
          "type": "address"
        },
        {
          "indexed": true,
          "internalType": "address",
          "name": "from",
          "type": "address"
        },
        {
          "indexed": true,
          "internalType": "address",
          "name": "to",
          "type": "address"
        },
        {
          "indexed": false,
          "internalType": "uint256[]",
          "name": "ids",
          "type": "uint256[]"
        },
        {
          "indexed": false,
          "internalType": "uint256[]",
          "name": "values",
          "type": "uint256[]"
        }
      ],
      "name": "TransferBatch",
      "type": "event"
    },
    {
      "anonymous": false,
      "inputs": [
        {
          "indexed": true,
          "internalType": "address",
          "name": "operator",
          "type": "address"
        },
        {
          "indexed": true,
          "internalType": "address",
          "name": "from",
          "type": "address"
        },
        {
          "indexed": true,
          "internalType": "address",
          "name": "to",
          "type": "address"
        },
        {
          "indexed": false,
          "internalType": "uint256",
          "name": "id",
          "type": "uint256"
        },
        {
          "indexed": false,
          "internalType": "uint256",
          "name": "value",
          "type": "uint256"
        }
      ],
      "name": "TransferSingle",
      "type": "event"
    },
    {
      "anonymous": false,
      "inputs": [
        {
          "indexed": false,
          "internalType": "string",
          "name": "value",
          "type": "string"
        },
        {
          "indexed": true,
          "internalType": "uint256",
          "name": "id",
          "type": "uint256"
        }
      ],
      "name": "URI",
      "type": "event"
    },
    {
      "anonymous": false,
      "inputs": [
        {
          "indexed": false,
          "internalType": "address",
          "name": "account",
          "type": "address"
        }
      ],
      "name": "Unpaused",
      "type": "event"
    },
    {
      "inputs": [
        {
          "internalType": "address",
          "name": "userAddress",
          "type": "address"
        }
      ],
      "name": "addUserToBlacklist",
      "outputs": [],
      "stateMutability": "nonpayable",
      "type": "function"
    },
    {
      "inputs": [
        {
          "internalType": "address",
          "name": "account",
          "type": "address"
        },
        {
          "internalType": "uint256",
          "name": "id",
          "type": "uint256"
        }
      ],
      "name": "balanceOf",
      "outputs": [
        {
          "internalType": "uint256",
          "name": "",
          "type": "uint256"
        }
      ],
      "stateMutability": "view",
      "type": "function"
    },
    {
      "inputs": [
        {
          "internalType": "address[]",
          "name": "accounts",
          "type": "address[]"
        },
        {
          "internalType": "uint256[]",
          "name": "ids",
          "type": "uint256[]"
        }
      ],
      "name": "balanceOfBatch",
      "outputs": [
        {
          "internalType": "uint256[]",
          "name": "",
          "type": "uint256[]"
        }
      ],
      "stateMutability": "view",
      "type": "function"
    },
    {
      "inputs": [
        {
          "internalType": "address",
          "name": "account",
          "type": "address"
        },
        {
          "internalType": "uint256",
          "name": "id",
          "type": "uint256"
        },
        {
          "internalType": "uint256",
          "name": "value",
          "type": "uint256"
        }
      ],
      "name": "burn",
      "outputs": [],
      "stateMutability": "nonpayable",
      "type": "function"
    },
    {
      "inputs": [
        {
          "internalType": "address",
          "name": "account",
          "type": "address"
        },
        {
          "internalType": "uint256[]",
          "name": "ids",
          "type": "uint256[]"
        },
        {
          "internalType": "uint256[]",
          "name": "values",
          "type": "uint256[]"
        }
      ],
      "name": "burnBatch",
      "outputs": [],
      "stateMutability": "nonpayable",
      "type": "function"
    },
    {
      "inputs": [],
      "name": "campaignContract",
      "outputs": [
        {
          "internalType": "address",
          "name": "",
          "type": "address"
        }
      ],
      "stateMutability": "view",
      "type": "function"
    },
    {
      "inputs": [
        {
          "internalType": "string",
          "name": "_campaignId",
          "type": "string"
        }
      ],
      "name": "getItemId",
      "outputs": [
        {
          "internalType": "uint256",
          "name": "",
          "type": "uint256"
        }
      ],
      "stateMutability": "view",
      "type": "function"
    },
    {
      "inputs": [
        {
          "internalType": "address",
          "name": "account",
          "type": "address"
        },
        {
          "internalType": "address",
          "name": "operator",
          "type": "address"
        }
      ],
      "name": "isApprovedForAll",
      "outputs": [
        {
          "internalType": "bool",
          "name": "",
          "type": "bool"
        }
      ],
      "stateMutability": "view",
      "type": "function"
    },
    {
      "inputs": [
        {
          "internalType": "string",
          "name": "campaignId",
          "type": "string"
        },
        {
          "internalType": "string",
          "name": "tokenURI",
          "type": "string"
        },
        {
          "internalType": "uint256",
          "name": "amount",
          "type": "uint256"
        },
        {
          "internalType": "address",
          "name": "owner",
          "type": "address"
        }
      ],
      "name": "mint",
      "outputs": [],
      "stateMutability": "nonpayable",
      "type": "function"
    },
    {
      "inputs": [],
      "name": "name",
      "outputs": [
        {
          "internalType": "string",
          "name": "",
          "type": "string"
        }
      ],
      "stateMutability": "view",
      "type": "function"
    },
    {
      "inputs": [],
      "name": "owner",
      "outputs": [
        {
          "internalType": "address",
          "name": "",
          "type": "address"
        }
      ],
      "stateMutability": "view",
      "type": "function"
    },
    {
      "inputs": [],
      "name": "pause",
      "outputs": [],
      "stateMutability": "nonpayable",
      "type": "function"
    },
    {
      "inputs": [],
      "name": "paused",
      "outputs": [
        {
          "internalType": "bool",
          "name": "",
          "type": "bool"
        }
      ],
      "stateMutability": "view",
      "type": "function"
    },
    {
      "inputs": [],
      "name": "renounceOwnership",
      "outputs": [],
      "stateMutability": "nonpayable",
      "type": "function"
    },
    {
      "inputs": [
        {
          "internalType": "address",
          "name": "from",
          "type": "address"
        },
        {
          "internalType": "address",
          "name": "to",
          "type": "address"
        },
        {
          "internalType": "uint256[]",
          "name": "ids",
          "type": "uint256[]"
        },
        {
          "internalType": "uint256[]",
          "name": "amounts",
          "type": "uint256[]"
        },
        {
          "internalType": "bytes",
          "name": "data",
          "type": "bytes"
        }
      ],
      "name": "safeBatchTransferFrom",
      "outputs": [],
      "stateMutability": "nonpayable",
      "type": "function"
    },
    {
      "inputs": [
        {
          "internalType": "address",
          "name": "from",
          "type": "address"
        },
        {
          "internalType": "address",
          "name": "to",
          "type": "address"
        },
        {
          "internalType": "uint256",
          "name": "id",
          "type": "uint256"
        },
        {
          "internalType": "uint256",
          "name": "amount",
          "type": "uint256"
        },
        {
          "internalType": "bytes",
          "name": "data",
          "type": "bytes"
        }
      ],
      "name": "safeTransferFrom",
      "outputs": [],
      "stateMutability": "nonpayable",
      "type": "function"
    },
    {
      "inputs": [
        {
          "internalType": "address",
          "name": "operator",
          "type": "address"
        },
        {
          "internalType": "bool",
          "name": "approved",
          "type": "bool"
        }
      ],
      "name": "setApprovalForAll",
      "outputs": [],
      "stateMutability": "nonpayable",
      "type": "function"
    },
    {
      "inputs": [
        {
          "internalType": "address",
          "name": "_campaignContract",
          "type": "address"
        }
      ],
      "name": "setCampaignContract",
      "outputs": [],
      "stateMutability": "nonpayable",
      "type": "function"
    },
    {
      "inputs": [
        {
          "internalType": "address",
          "name": "userAddress",
          "type": "address"
        }
      ],
      "name": "setManager",
      "outputs": [],
      "stateMutability": "nonpayable",
      "type": "function"
    },
    {
      "inputs": [
        {
          "internalType": "string",
          "name": "baseURI",
          "type": "string"
        }
      ],
      "name": "setURI",
      "outputs": [],
      "stateMutability": "nonpayable",
      "type": "function"
    },
    {
      "inputs": [
        {
          "internalType": "bytes4",
          "name": "interfaceId",
          "type": "bytes4"
        }
      ],
      "name": "supportsInterface",
      "outputs": [
        {
          "internalType": "bool",
          "name": "",
          "type": "bool"
        }
      ],
      "stateMutability": "view",
      "type": "function"
    },
    {
      "inputs": [],
      "name": "symbol",
      "outputs": [
        {
          "internalType": "string",
          "name": "",
          "type": "string"
        }
      ],
      "stateMutability": "view",
      "type": "function"
    },
    {
      "inputs": [
        {
          "internalType": "address",
          "name": "newOwner",
          "type": "address"
        }
      ],
      "name": "transferOwnership",
      "outputs": [],
      "stateMutability": "nonpayable",
      "type": "function"
    },
    {
      "inputs": [],
      "name": "unpause",
      "outputs": [],
      "stateMutability": "nonpayable",
      "type": "function"
    },
    {
      "inputs": [
        {
          "internalType": "uint256",
          "name": "tokenId",
          "type": "uint256"
        }
      ],
      "name": "uri",
      "outputs": [
        {
          "internalType": "string",
          "name": "",
          "type": "string"
        }
      ],
      "stateMutability": "view",
      "type": "function"
    }
  ],
  "bytecode": "0x60806040523480156200001157600080fd5b5060405162002c6638038062002c6683398101604081905262000034916200029b565b60408051808201909152601381527f53757065724a6f694e46544672616374696f6e0000000000000000000000000060208201526000805460ff191690556200007d81620000bd565b506200008933620000d6565b81516200009e90600590602085019062000128565b508051620000b490600690602084019062000128565b50505062000342565b8051620000d290600390602084019062000128565b5050565b600480546001600160a01b038381166001600160a01b0319831681179093556040519116919082907f8be0079c531659141344cd1fd0a4f28419497f9722a3daafe3b4186f6b6457e090600090a35050565b828054620001369062000305565b90600052602060002090601f0160209004810192826200015a5760008555620001a5565b82601f106200017557805160ff1916838001178555620001a5565b82800160010185558215620001a5579182015b82811115620001a557825182559160200191906001019062000188565b50620001b3929150620001b7565b5090565b5b80821115620001b35760008155600101620001b8565b634e487b7160e01b600052604160045260246000fd5b600082601f830112620001f657600080fd5b81516001600160401b0380821115620002135762000213620001ce565b604051601f8301601f19908116603f011681019082821181831017156200023e576200023e620001ce565b816040528381526020925086838588010111156200025b57600080fd5b600091505b838210156200027f578582018301518183018401529082019062000260565b83821115620002915760008385830101525b9695505050505050565b60008060408385031215620002af57600080fd5b82516001600160401b0380821115620002c757600080fd5b620002d586838701620001e4565b93506020850151915080821115620002ec57600080fd5b50620002fb85828601620001e4565b9150509250929050565b600181811c908216806200031a57607f821691505b602082108114156200033c57634e487b7160e01b600052602260045260246000fd5b50919050565b61291480620003526000396000f3fe608060405234801561001057600080fd5b50600436106101725760003560e01c80636b20c454116100de578063a22cb46511610097578063f242432a11610071578063f242432a14610345578063f2fde38b14610358578063f5298aca1461036b578063f7bc69841461037e57600080fd5b8063a22cb465146102e3578063d0ebdbe7146102f6578063e985e9c51461030957600080fd5b80636b20c454146102945780636f5f4c4f146102a7578063715018a6146102ba5780638456cb59146102c25780638da5cb5b146102ca57806395d89b41146102db57600080fd5b80633f4ba83a116101305780633f4ba83a146102105780634863e96d146102185780634e1273f41461022b57806358ae05cd1461024b5780635c975abb14610276578063669be2d61461028157600080fd5b8062fdd58e1461017757806301ffc9a71461019d57806302fe5305146101c057806306fdde03146101d55780630e89341c146101ea5780632eb2c2d6146101fd575b600080fd5b61018a610185366004611c5a565b610391565b6040519081526020015b60405180910390f35b6101b06101ab366004611c9a565b61042a565b6040519015158152602001610194565b6101d36101ce366004611dac565b61047c565b005b6101dd6104b2565b6040516101949190611e44565b6101dd6101f8366004611e57565b610544565b6101d361020b366004611f04565b6105e6565b6101d361067d565b6101d3610226366004611fad565b6106b1565b61023e610239366004611fc8565b6106ff565b60405161019491906120cd565b60085461025e906001600160a01b031681565b6040516001600160a01b039091168152602001610194565b60005460ff166101b0565b6101d361028f366004611fad565b610828565b6101d36102a23660046120e0565b610876565b61018a6102b5366004611dac565b6108be565b6101d36109dc565b6101d3610a10565b6004546001600160a01b031661025e565b6101dd610a42565b6101d36102f1366004612161565b610a51565b6101d3610304366004611fad565b610a60565b6101b0610317366004612198565b6001600160a01b03918216600090815260026020908152604080832093909416825291909152205460ff1690565b6101d36103533660046121cb565b610aae565b6101d3610366366004611fad565b610af3565b6101d361037936600461222f565b610b8b565b6101d361038c366004612262565b610bce565b60006001600160a01b0383166104025760405162461bcd60e51b815260206004820152602b60248201527f455243313135353a2062616c616e636520717565727920666f7220746865207a60448201526a65726f206164647265737360a81b60648201526084015b60405180910390fd5b5060009081526001602090815260408083206001600160a01b03949094168352929052205490565b60006001600160e01b03198216636cdb3d1360e11b148061045b57506001600160e01b031982166303a24d0760e21b145b8061047657506301ffc9a760e01b6001600160e01b03198316145b92915050565b6004546001600160a01b031633146104a65760405162461bcd60e51b81526004016103f9906122df565b6104af81610e68565b50565b6060600580546104c190612314565b80601f01602080910402602001604051908101604052809291908181526020018280546104ed90612314565b801561053a5780601f1061050f5761010080835404028352916020019161053a565b820191906000526020600020905b81548152906001019060200180831161051d57829003601f168201915b5050505050905090565b600081815260096020526040902080546060919061056190612314565b80601f016020809104026020016040519081016040528092919081815260200182805461058d90612314565b80156105da5780601f106105af576101008083540402835291602001916105da565b820191906000526020600020905b8154815290600101906020018083116105bd57829003601f168201915b50505050509050919050565b6001600160a01b03851633148061060257506106028533610317565b6106695760405162461bcd60e51b815260206004820152603260248201527f455243313135353a207472616e736665722063616c6c6572206973206e6f74206044820152711bdddb995c881b9bdc88185c1c1c9bdd995960721b60648201526084016103f9565b6106768585858585610e7b565b5050505050565b6004546001600160a01b031633146106a75760405162461bcd60e51b81526004016103f9906122df565b6106af611028565b565b6004546001600160a01b031633146106db5760405162461bcd60e51b81526004016103f9906122df565b6001600160a01b03166000908152600c60205260409020805460ff19166001179055565b606081518351146107645760405162461bcd60e51b815260206004820152602960248201527f455243313135353a206163636f756e747320616e6420696473206c656e677468604482015268040dad2e6dac2e8c6d60bb1b60648201526084016103f9565b600083516001600160401b0381111561077f5761077f611cbe565b6040519080825280602002602001820160405280156107a8578160200160208202803683370190505b50905060005b8451811015610820576107f38582815181106107cc576107cc61234f565b60200260200101518583815181106107e6576107e661234f565b6020026020010151610391565b8282815181106108055761080561234f565b60209081029190910101526108198161237b565b90506107ae565b509392505050565b6004546001600160a01b031633146108525760405162461bcd60e51b81526004016103f9906122df565b600880546001600160a01b0319166001600160a01b0383161790556104af81610a60565b6001600160a01b03831633148061089257506108928333610317565b6108ae5760405162461bcd60e51b81526004016103f990612396565b6108b98383836110bb565b505050565b6008546040516314afcdbb60e21b815260009182916001600160a01b03909116906352bf36ec906108f3908690600401611e44565b60006040518083038186803b15801561090b57600080fd5b505afa15801561091f573d6000803e3d6000fd5b505050506040513d6000823e601f3d908101601f191682016040526109479190810190612451565b9050806020015151600014156109b55760405162461bcd60e51b815260206004820152602d60248201527f534a4672616374696f6e733a3a6765744974656d49643a2043616d706169676e60448201526c081a5cc81b9bdd08195e1a5cdd609a1b60648201526084016103f9565b600a836040516109c59190612551565b908152602001604051809103902054915050919050565b6004546001600160a01b03163314610a065760405162461bcd60e51b81526004016103f9906122df565b6106af600061124c565b6004546001600160a01b03163314610a3a5760405162461bcd60e51b81526004016103f9906122df565b6106af61129e565b6060600680546104c190612314565b610a5c338383611319565b5050565b6004546001600160a01b03163314610a8a5760405162461bcd60e51b81526004016103f9906122df565b6001600160a01b03166000908152600b60205260409020805460ff19166001179055565b6001600160a01b038516331480610aca5750610aca8533610317565b610ae65760405162461bcd60e51b81526004016103f990612396565b61067685858585856113fa565b6004546001600160a01b03163314610b1d5760405162461bcd60e51b81526004016103f9906122df565b6001600160a01b038116610b825760405162461bcd60e51b815260206004820152602660248201527f4f776e61626c653a206e6577206f776e657220697320746865207a65726f206160448201526564647265737360d01b60648201526084016103f9565b6104af8161124c565b6001600160a01b038316331480610ba75750610ba78333610317565b610bc35760405162461bcd60e51b81526004016103f990612396565b6108b983838361152a565b336000908152600b602052604090205460ff161515600114610c585760405162461bcd60e51b815260206004820152603c60248201527f43616d706169676e436f6e74726163743a3a6d696e743a204f6e6c79204d616e60448201527f616765722063616e20706572666f726d207468697320616374696f6e0000000060648201526084016103f9565b6008546001600160a01b0316610cd65760405162461bcd60e51b815260206004820152603760248201527f534a4672616374696f6e733a3a6d696e743a20596f75206d757374207365742060448201527f63616d706169676e20636f6e747261637420666972737400000000000000000060648201526084016103f9565b6008546040516314afcdbb60e21b81526000916001600160a01b0316906352bf36ec90610d07908890600401611e44565b60006040518083038186803b158015610d1f57600080fd5b505afa158015610d33573d6000803e3d6000fd5b505050506040513d6000823e601f3d908101601f19168201604052610d5b9190810190612451565b905080602001515160001415610dc45760405162461bcd60e51b815260206004820152602860248201527f534a4672616374696f6e733a3a6d696e743a2043616d706169676e206973206e6044820152671bdd08195e1a5cdd60c21b60648201526084016103f9565b6000610dcf60075490565b9050610dec8382866040518060200160405280600081525061162f565b610df68186611732565b80600a87604051610e079190612551565b90815260405190819003602001902055610e25600780546001019055565b7f4f0e872b24a56c67c851d8f30a23900820dbd2ef7fa720b5017ec5d80dc75ca8818786604051610e589392919061256d565b60405180910390a1505050505050565b8051610a5c906003906020840190611ba5565b8151835114610e9c5760405162461bcd60e51b81526004016103f990612596565b6001600160a01b038416610ec25760405162461bcd60e51b81526004016103f9906125de565b33610ed1818787878787611751565b60005b8451811015610fba576000858281518110610ef157610ef161234f565b602002602001015190506000858381518110610f0f57610f0f61234f565b60209081029190910181015160008481526001835260408082206001600160a01b038e168352909352919091205490915081811015610f605760405162461bcd60e51b81526004016103f990612623565b60008381526001602090815260408083206001600160a01b038e8116855292528083208585039055908b16825281208054849290610f9f90849061266d565b9250508190555050505080610fb39061237b565b9050610ed4565b50846001600160a01b0316866001600160a01b0316826001600160a01b03167f4a39dc06d4c0dbc64b70af90fd698a233a518aa5d07e595d983b8c0526c8f7fb878760405161100a929190612685565b60405180910390a4611020818787878787611925565b505050505050565b60005460ff166110715760405162461bcd60e51b815260206004820152601460248201527314185d5cd8589b194e881b9bdd081c185d5cd95960621b60448201526064016103f9565b6000805460ff191690557f5db9ee0a495bf2e6ff9c91a7834c1ba4fdd244a5e8aa4e537bd38aeae4b073aa335b6040516001600160a01b03909116815260200160405180910390a1565b6001600160a01b0383166110e15760405162461bcd60e51b81526004016103f9906126aa565b80518251146111025760405162461bcd60e51b81526004016103f990612596565b600033905061112581856000868660405180602001604052806000815250611751565b60005b83518110156111ed5760008482815181106111455761114561234f565b6020026020010151905060008483815181106111635761116361234f565b60209081029190910181015160008481526001835260408082206001600160a01b038c1683529093529190912054909150818110156111b45760405162461bcd60e51b81526004016103f9906126ed565b60009283526001602090815260408085206001600160a01b038b16865290915290922091039055806111e58161237b565b915050611128565b5060006001600160a01b0316846001600160a01b0316826001600160a01b03167f4a39dc06d4c0dbc64b70af90fd698a233a518aa5d07e595d983b8c0526c8f7fb868660405161123e929190612685565b60405180910390a450505050565b600480546001600160a01b038381166001600160a01b0319831681179093556040519116919082907f8be0079c531659141344cd1fd0a4f28419497f9722a3daafe3b4186f6b6457e090600090a35050565b60005460ff16156112e45760405162461bcd60e51b815260206004820152601060248201526f14185d5cd8589b194e881c185d5cd95960821b60448201526064016103f9565b6000805460ff191660011790557f62e78cea01bee320cd4e420270b5ea74000d11b0c9f74754ebdbfc544b05a25861109e3390565b816001600160a01b0316836001600160a01b0316141561138d5760405162461bcd60e51b815260206004820152602960248201527f455243313135353a2073657474696e6720617070726f76616c20737461747573604482015268103337b91039b2b63360b91b60648201526084016103f9565b6001600160a01b03838116600081815260026020908152604080832094871680845294825291829020805460ff191686151590811790915591519182527f17307eab39ab6107e8899845ad3d59bd9653f200f220920489ca2b5937696c31910160405180910390a3505050565b6001600160a01b0384166114205760405162461bcd60e51b81526004016103f9906125de565b3361143f81878761143088611a90565b61143988611a90565b87611751565b60008481526001602090815260408083206001600160a01b038a168452909152902054838110156114825760405162461bcd60e51b81526004016103f990612623565b60008581526001602090815260408083206001600160a01b038b81168552925280832087850390559088168252812080548692906114c190849061266d565b909155505060408051868152602081018690526001600160a01b03808916928a821692918616917fc3d58168c5ae7397731d063d5bbf3d657854427343f4c083240f7aacaa2d0f62910160405180910390a4611521828888888888611adb565b50505050505050565b6001600160a01b0383166115505760405162461bcd60e51b81526004016103f9906126aa565b3361157f8185600061156187611a90565b61156a87611a90565b60405180602001604052806000815250611751565b60008381526001602090815260408083206001600160a01b0388168452909152902054828110156115c25760405162461bcd60e51b81526004016103f9906126ed565b60008481526001602090815260408083206001600160a01b03898116808652918452828520888703905582518981529384018890529092908616917fc3d58168c5ae7397731d063d5bbf3d657854427343f4c083240f7aacaa2d0f62910160405180910390a45050505050565b6001600160a01b03841661168f5760405162461bcd60e51b815260206004820152602160248201527f455243313135353a206d696e7420746f20746865207a65726f206164647265736044820152607360f81b60648201526084016103f9565b336116a08160008761143088611a90565b60008481526001602090815260408083206001600160a01b0389168452909152812080548592906116d290849061266d565b909155505060408051858152602081018590526001600160a01b0380881692600092918516917fc3d58168c5ae7397731d063d5bbf3d657854427343f4c083240f7aacaa2d0f62910160405180910390a461067681600087878787611adb565b600082815260096020908152604090912082516108b992840190611ba5565b60005460ff16156117975760405162461bcd60e51b815260206004820152601060248201526f14185d5cd8589b194e881c185d5cd95960821b60448201526064016103f9565b6001600160a01b0385166000908152600c602052604090205460ff1615156001148015906117e357506001600160a01b0384166000908152600c602052604090205460ff161515600114155b6118655760405162461bcd60e51b815260206004820152604760248201527f534a4672616374696f6e733a3a5f6265666f7265546f6b656e5472616e73666560448201527f723a20596f75206f722072656365697665722061726520696e2074686520626c6064820152661858dadb1a5cdd60ca1b608482015260a4016103f9565b6001600160a01b0385166000908152600b602052604090205460ff161515600114806118ae57506001600160a01b0384166000908152600b602052604090205460ff1615156001145b6119205760405162461bcd60e51b815260206004820152603960248201527f534a4672616374696f6e733a3a5f6265666f7265546f6b656e5472616e73666560448201527f723a2046726f6d2f546f206973206e6f74204d616e616765720000000000000060648201526084016103f9565b611020565b6001600160a01b0384163b156110205760405163bc197c8160e01b81526001600160a01b0385169063bc197c81906119699089908990889088908890600401612731565b602060405180830381600087803b15801561198357600080fd5b505af19250505080156119b3575060408051601f3d908101601f191682019092526119b09181019061278f565b60015b611a60576119bf6127ac565b806308c379a014156119f957506119d46127c8565b806119df57506119fb565b8060405162461bcd60e51b81526004016103f99190611e44565b505b60405162461bcd60e51b815260206004820152603460248201527f455243313135353a207472616e7366657220746f206e6f6e20455243313135356044820152732932b1b2b4bb32b91034b6b83632b6b2b73a32b960611b60648201526084016103f9565b6001600160e01b0319811663bc197c8160e01b146115215760405162461bcd60e51b81526004016103f990612851565b60408051600180825281830190925260609160009190602080830190803683370190505090508281600081518110611aca57611aca61234f565b602090810291909101015292915050565b6001600160a01b0384163b156110205760405163f23a6e6160e01b81526001600160a01b0385169063f23a6e6190611b1f9089908990889088908890600401612899565b602060405180830381600087803b158015611b3957600080fd5b505af1925050508015611b69575060408051601f3d908101601f19168201909252611b669181019061278f565b60015b611b75576119bf6127ac565b6001600160e01b0319811663f23a6e6160e01b146115215760405162461bcd60e51b81526004016103f990612851565b828054611bb190612314565b90600052602060002090601f016020900481019282611bd35760008555611c19565b82601f10611bec57805160ff1916838001178555611c19565b82800160010185558215611c19579182015b82811115611c19578251825591602001919060010190611bfe565b50611c25929150611c29565b5090565b5b80821115611c255760008155600101611c2a565b80356001600160a01b0381168114611c5557600080fd5b919050565b60008060408385031215611c6d57600080fd5b611c7683611c3e565b946020939093013593505050565b6001600160e01b0319811681146104af57600080fd5b600060208284031215611cac57600080fd5b8135611cb781611c84565b9392505050565b634e487b7160e01b600052604160045260246000fd5b601f8201601f191681016001600160401b0381118282101715611cf957611cf9611cbe565b6040525050565b60405161016081016001600160401b0381118282101715611d2357611d23611cbe565b60405290565b60006001600160401b03821115611d4257611d42611cbe565b50601f01601f191660200190565b600082601f830112611d6157600080fd5b8135611d6c81611d29565b604051611d798282611cd4565b828152856020848701011115611d8e57600080fd5b82602086016020830137600092810160200192909252509392505050565b600060208284031215611dbe57600080fd5b81356001600160401b03811115611dd457600080fd5b611de084828501611d50565b949350505050565b60005b83811015611e03578181015183820152602001611deb565b83811115611e12576000848401525b50505050565b60008151808452611e30816020860160208601611de8565b601f01601f19169290920160200192915050565b602081526000611cb76020830184611e18565b600060208284031215611e6957600080fd5b5035919050565b60006001600160401b03821115611e8957611e89611cbe565b5060051b60200190565b600082601f830112611ea457600080fd5b81356020611eb182611e70565b604051611ebe8282611cd4565b83815260059390931b8501820192828101915086841115611ede57600080fd5b8286015b84811015611ef95780358352918301918301611ee2565b509695505050505050565b600080600080600060a08688031215611f1c57600080fd5b611f2586611c3e565b9450611f3360208701611c3e565b935060408601356001600160401b0380821115611f4f57600080fd5b611f5b89838a01611e93565b94506060880135915080821115611f7157600080fd5b611f7d89838a01611e93565b93506080880135915080821115611f9357600080fd5b50611fa088828901611d50565b9150509295509295909350565b600060208284031215611fbf57600080fd5b611cb782611c3e565b60008060408385031215611fdb57600080fd5b82356001600160401b0380821115611ff257600080fd5b818501915085601f83011261200657600080fd5b8135602061201382611e70565b6040516120208282611cd4565b83815260059390931b850182019282810191508984111561204057600080fd5b948201945b838610156120655761205686611c3e565b82529482019490820190612045565b9650508601359250508082111561207b57600080fd5b5061208885828601611e93565b9150509250929050565b600081518084526020808501945080840160005b838110156120c2578151875295820195908201906001016120a6565b509495945050505050565b602081526000611cb76020830184612092565b6000806000606084860312156120f557600080fd5b6120fe84611c3e565b925060208401356001600160401b038082111561211a57600080fd5b61212687838801611e93565b9350604086013591508082111561213c57600080fd5b5061214986828701611e93565b9150509250925092565b80151581146104af57600080fd5b6000806040838503121561217457600080fd5b61217d83611c3e565b9150602083013561218d81612153565b809150509250929050565b600080604083850312156121ab57600080fd5b6121b483611c3e565b91506121c260208401611c3e565b90509250929050565b600080600080600060a086880312156121e357600080fd5b6121ec86611c3e565b94506121fa60208701611c3e565b9350604086013592506060860135915060808601356001600160401b0381111561222357600080fd5b611fa088828901611d50565b60008060006060848603121561224457600080fd5b61224d84611c3e565b95602085013595506040909401359392505050565b6000806000806080858703121561227857600080fd5b84356001600160401b038082111561228f57600080fd5b61229b88838901611d50565b955060208701359150808211156122b157600080fd5b506122be87828801611d50565b935050604085013591506122d460608601611c3e565b905092959194509250565b6020808252818101527f4f776e61626c653a2063616c6c6572206973206e6f7420746865206f776e6572604082015260600190565b600181811c9082168061232857607f821691505b6020821081141561234957634e487b7160e01b600052602260045260246000fd5b50919050565b634e487b7160e01b600052603260045260246000fd5b634e487b7160e01b600052601160045260246000fd5b600060001982141561238f5761238f612365565b5060010190565b60208082526029908201527f455243313135353a2063616c6c6572206973206e6f74206f776e6572206e6f7260408201526808185c1c1c9bdd995960ba1b606082015260800190565b600082601f8301126123f057600080fd5b81516123fb81611d29565b6040516124088282611cd4565b82815285602084870101111561241d57600080fd5b61242e836020830160208801611de8565b95945050505050565b805160028110611c5557600080fd5b8051611c5581612153565b60006020828403121561246357600080fd5b81516001600160401b038082111561247a57600080fd5b90830190610160828603121561248f57600080fd5b612497611d00565b8251828111156124a657600080fd5b6124b2878286016123df565b8252506020830151828111156124c757600080fd5b6124d3878286016123df565b60208301525060408301516040820152606083015160608201526124f960808401612437565b608082015260a0838101519082015260c0808401519082015260e08084015190820152610100808401519082015261012080840151908201526101409150612542828401612446565b91810191909152949350505050565b60008251612563818460208701611de8565b9190910192915050565b8381526060602082015260006125866060830185611e18565b9050826040830152949350505050565b60208082526028908201527f455243313135353a2069647320616e6420616d6f756e7473206c656e677468206040820152670dad2e6dac2e8c6d60c31b606082015260800190565b60208082526025908201527f455243313135353a207472616e7366657220746f20746865207a65726f206164604082015264647265737360d81b606082015260800190565b6020808252602a908201527f455243313135353a20696e73756666696369656e742062616c616e636520666f60408201526939103a3930b739b332b960b11b606082015260800190565b6000821982111561268057612680612365565b500190565b6040815260006126986040830185612092565b828103602084015261242e8185612092565b60208082526023908201527f455243313135353a206275726e2066726f6d20746865207a65726f206164647260408201526265737360e81b606082015260800190565b60208082526024908201527f455243313135353a206275726e20616d6f756e7420657863656564732062616c604082015263616e636560e01b606082015260800190565b6001600160a01b0386811682528516602082015260a06040820181905260009061275d90830186612092565b828103606084015261276f8186612092565b905082810360808401526127838185611e18565b98975050505050505050565b6000602082840312156127a157600080fd5b8151611cb781611c84565b600060033d11156127c55760046000803e5060005160e01c5b90565b600060443d10156127d65790565b6040516003193d81016004833e81513d6001600160401b03816024840111818411171561280557505050505090565b828501915081518181111561281d5750505050505090565b843d87010160208285010111156128375750505050505090565b61284660208286010187611cd4565b509095945050505050565b60208082526028908201527f455243313135353a204552433131353552656365697665722072656a656374656040820152676420746f6b656e7360c01b606082015260800190565b6001600160a01b03868116825285166020820152604081018490526060810183905260a0608082018190526000906128d390830184611e18565b97965050505050505056fea26469706673582212200bdaa97233c79de3740f17cf59dee03000189b70e4b71278eb5520e55b05a52364736f6c63430008090033",
  "linkReferences": {},
  "deployedLinkReferences": {}
}