{
  "_format": "hh-sol-artifact-1",
  "contractName": "NFTMarket",
  "sourceName": "contracts/NFTMarket.sol",
  "abi": [
    {
      "inputs": [],
      "stateMutability": "nonpayable",
      "type": "constructor"
    },
    {
      "anonymous": false,
      "inputs": [
        {
          "indexed": true,
          "internalType": "uint256",
          "name": "itemId",
          "type": "uint256"
        },
        {
          "indexed": true,
          "internalType": "address",
          "name": "nftContract",
          "type": "address"
        },
        {
          "indexed": true,
          "internalType": "uint256",
          "name": "tokenId",
          "type": "uint256"
        },
        {
          "indexed": false,
          "internalType": "address",
          "name": "seller",
          "type": "address"
        },
        {
          "indexed": false,
          "internalType": "address",
          "name": "owner",
          "type": "address"
        },
        {
          "indexed": false,
          "internalType": "uint256",
          "name": "price",
          "type": "uint256"
        },
        {
          "indexed": false,
          "internalType": "bool",
          "name": "sold",
          "type": "bool"
        },
        {
          "indexed": false,
          "internalType": "uint256",
          "name": "category",
          "type": "uint256"
        }
      ],
      "name": "MarketItemCreated",
      "type": "event"
    },
    {
      "inputs": [
        {
          "internalType": "address",
          "name": "nftContract",
          "type": "address"
        },
        {
          "internalType": "uint256",
          "name": "tokenId",
          "type": "uint256"
        },
        {
          "internalType": "uint256",
          "name": "category",
          "type": "uint256"
        },
        {
          "internalType": "uint256",
          "name": "price",
          "type": "uint256"
        }
      ],
      "name": "createMarketItem",
      "outputs": [],
      "stateMutability": "payable",
      "type": "function"
    },
    {
      "inputs": [
        {
          "internalType": "address",
          "name": "nftContract",
          "type": "address"
        },
        {
          "internalType": "uint256",
          "name": "itemId",
          "type": "uint256"
        }
      ],
      "name": "createMarketSale",
      "outputs": [],
      "stateMutability": "payable",
      "type": "function"
    },
    {
      "inputs": [],
      "name": "fetchItemsCreated",
      "outputs": [
        {
          "components": [
            {
              "internalType": "uint256",
              "name": "itemId",
              "type": "uint256"
            },
            {
              "internalType": "address",
              "name": "nftContract",
              "type": "address"
            },
            {
              "internalType": "uint256",
              "name": "tokenId",
              "type": "uint256"
            },
            {
              "internalType": "address payable",
              "name": "seller",
              "type": "address"
            },
            {
              "internalType": "address payable",
              "name": "owner",
              "type": "address"
            },
            {
              "internalType": "uint256",
              "name": "price",
              "type": "uint256"
            },
            {
              "internalType": "bool",
              "name": "sold",
              "type": "bool"
            },
            {
              "internalType": "uint256",
              "name": "category",
              "type": "uint256"
            }
          ],
          "internalType": "struct NFTMarket.MarketItem[]",
          "name": "",
          "type": "tuple[]"
        }
      ],
      "stateMutability": "view",
      "type": "function"
    },
    {
      "inputs": [],
      "name": "fetchMarketItems",
      "outputs": [
        {
          "components": [
            {
              "internalType": "uint256",
              "name": "itemId",
              "type": "uint256"
            },
            {
              "internalType": "address",
              "name": "nftContract",
              "type": "address"
            },
            {
              "internalType": "uint256",
              "name": "tokenId",
              "type": "uint256"
            },
            {
              "internalType": "address payable",
              "name": "seller",
              "type": "address"
            },
            {
              "internalType": "address payable",
              "name": "owner",
              "type": "address"
            },
            {
              "internalType": "uint256",
              "name": "price",
              "type": "uint256"
            },
            {
              "internalType": "bool",
              "name": "sold",
              "type": "bool"
            },
            {
              "internalType": "uint256",
              "name": "category",
              "type": "uint256"
            }
          ],
          "internalType": "struct NFTMarket.MarketItem[]",
          "name": "",
          "type": "tuple[]"
        }
      ],
      "stateMutability": "view",
      "type": "function"
    },
    {
      "inputs": [
        {
          "internalType": "uint256",
          "name": "cat",
          "type": "uint256"
        }
      ],
      "name": "fetchMarketItemsbycat",
      "outputs": [
        {
          "components": [
            {
              "internalType": "uint256",
              "name": "itemId",
              "type": "uint256"
            },
            {
              "internalType": "address",
              "name": "nftContract",
              "type": "address"
            },
            {
              "internalType": "uint256",
              "name": "tokenId",
              "type": "uint256"
            },
            {
              "internalType": "address payable",
              "name": "seller",
              "type": "address"
            },
            {
              "internalType": "address payable",
              "name": "owner",
              "type": "address"
            },
            {
              "internalType": "uint256",
              "name": "price",
              "type": "uint256"
            },
            {
              "internalType": "bool",
              "name": "sold",
              "type": "bool"
            },
            {
              "internalType": "uint256",
              "name": "category",
              "type": "uint256"
            }
          ],
          "internalType": "struct NFTMarket.MarketItem[]",
          "name": "",
          "type": "tuple[]"
        }
      ],
      "stateMutability": "view",
      "type": "function"
    },
    {
      "inputs": [],
      "name": "fetchMyNFTs",
      "outputs": [
        {
          "components": [
            {
              "internalType": "uint256",
              "name": "itemId",
              "type": "uint256"
            },
            {
              "internalType": "address",
              "name": "nftContract",
              "type": "address"
            },
            {
              "internalType": "uint256",
              "name": "tokenId",
              "type": "uint256"
            },
            {
              "internalType": "address payable",
              "name": "seller",
              "type": "address"
            },
            {
              "internalType": "address payable",
              "name": "owner",
              "type": "address"
            },
            {
              "internalType": "uint256",
              "name": "price",
              "type": "uint256"
            },
            {
              "internalType": "bool",
              "name": "sold",
              "type": "bool"
            },
            {
              "internalType": "uint256",
              "name": "category",
              "type": "uint256"
            }
          ],
          "internalType": "struct NFTMarket.MarketItem[]",
          "name": "",
          "type": "tuple[]"
        }
      ],
      "stateMutability": "view",
      "type": "function"
    },
    {
      "inputs": [
        {
          "internalType": "uint256",
          "name": "category",
          "type": "uint256"
        }
      ],
      "name": "getItemsByCategory",
      "outputs": [
        {
          "components": [
            {
              "internalType": "uint256",
              "name": "itemId",
              "type": "uint256"
            },
            {
              "internalType": "address",
              "name": "nftContract",
              "type": "address"
            },
            {
              "internalType": "uint256",
              "name": "tokenId",
              "type": "uint256"
            },
            {
              "internalType": "address payable",
              "name": "seller",
              "type": "address"
            },
            {
              "internalType": "address payable",
              "name": "owner",
              "type": "address"
            },
            {
              "internalType": "uint256",
              "name": "price",
              "type": "uint256"
            },
            {
              "internalType": "bool",
              "name": "sold",
              "type": "bool"
            },
            {
              "internalType": "uint256",
              "name": "category",
              "type": "uint256"
            }
          ],
          "internalType": "struct NFTMarket.MarketItem[]",
          "name": "",
          "type": "tuple[]"
        }
      ],
      "stateMutability": "view",
      "type": "function"
    },
    {
      "inputs": [],
      "name": "getListingPrice",
      "outputs": [
        {
          "internalType": "uint256",
          "name": "",
          "type": "uint256"
        }
      ],
      "stateMutability": "view",
      "type": "function"
    },
    {
      "inputs": [
        {
          "internalType": "uint256",
          "name": "f",
          "type": "uint256"
        }
      ],
      "name": "getcategory",
      "outputs": [
        {
          "internalType": "string",
          "name": "",
          "type": "string"
        }
      ],
      "stateMutability": "pure",
      "type": "function"
    }
  ],
  "bytecode": "0x60806040526658d15e1762800060045534801561001b57600080fd5b506001600055600380546001600160a01b031916331790556115fb806100426000396000f3fe6080604052600436106100865760003560e01c8063599ba23411610059578063599ba234146101095780635f06f8bd1461011e578063c23b139e1461014b578063d5ee0c131461015e578063f064c32e1461017e57600080fd5b80630f08efe01461008b57806312e85585146100b6578063202e3740146100d457806355258d1c146100e9575b600080fd5b34801561009757600080fd5b506100a0610193565b6040516100ad91906113b2565b60405180910390f35b3480156100c257600080fd5b506004546040519081526020016100ad565b3480156100e057600080fd5b506100a061032a565b3480156100f557600080fd5b506100a0610104366004611451565b6104ff565b61011c610117366004611481565b6107dc565b005b34801561012a57600080fd5b5061013e610139366004611451565b610b27565b6040516100ad91906114ba565b61011c61015936600461150f565b610da6565b34801561016a57600080fd5b506100a0610179366004611451565b610fc2565b34801561018a57600080fd5b506100a061117b565b606060006101a060015490565b905060006101ad60025490565b6001546101ba919061154f565b90506000808267ffffffffffffffff8111156101d8576101d8611566565b60405190808252806020026020018201604052801561021157816020015b6101fe611350565b8152602001906001900390816101f65790505b50905060005b8481101561032157600060058161022f84600161157c565b81526020810191909152604001600020600401546001600160a01b0316141561030f57600061025f82600161157c565b6000818152600560208181526040928390208351610100810185528154815260018201546001600160a01b0390811693820193909352600282015494810194909452600381015482166060850152600481015490911660808401529081015460a0830152600681015460ff16151560c0830152600781015460e08301528551929350918590879081106102f4576102f4611594565b602090810291909101015261030a60018661157c565b945050505b80610319816115aa565b915050610217565b50949350505050565b6060600061033760015490565b905060008060005b8381101561039a57336005600061035784600161157c565b81526020810191909152604001600020600401546001600160a01b031614156103885761038560018461157c565b92505b80610392816115aa565b91505061033f565b5060008267ffffffffffffffff8111156103b6576103b6611566565b6040519080825280602002602001820160405280156103ef57816020015b6103dc611350565b8152602001906001900390816103d45790505b50905060005b8481101561032157336005600061040d84600161157c565b81526020810191909152604001600020600401546001600160a01b031614156104ed57600061043d82600161157c565b6000818152600560208181526040928390208351610100810185528154815260018201546001600160a01b0390811693820193909352600282015494810194909452600381015482166060850152600481015490911660808401529081015460a0830152600681015460ff16151560c0830152600781015460e08301528551929350918590879081106104d2576104d2611594565b60209081029190910101526104e860018661157c565b945050505b806104f7816115aa565b9150506103f5565b6060600061050c60015490565b905060008060005b838110156105e557604080516020810188905201604051602081830303815290604052805190602001206005600083600161054f919061157c565b81526020019081526020016000206007015460405160200161057391815260200190565b604051602081830303815290604052805190602001201480156105c0575060006005816105a184600161157c565b81526020810191909152604001600020600401546001600160a01b0316145b156105d3576105d060018461157c565b92505b806105dd816115aa565b915050610514565b5060008267ffffffffffffffff81111561060157610601611566565b60405190808252806020026020018201604052801561063a57816020015b610627611350565b81526020019060019003908161061f5790505b50905060005b848110156107d257604080516020810189905201604051602081830303815290604052805190602001206005600083600161067b919061157c565b81526020019081526020016000206007015460405160200161069f91815260200190565b604051602081830303815290604052805190602001201480156106ec575060006005816106cd84600161157c565b81526020810191909152604001600020600401546001600160a01b0316145b156107c057600060058161070184600161157c565b815260208082019290925260409081016000908120548082526005808552918390208351610100810185528154815260018201546001600160a01b0390811696820196909652600282015494810194909452600381015485166060850152600481015490941660808401529083015460a0830152600683015460ff16151560c0830152600783015460e083015285519093508590879081106107a5576107a5611594565b60209081029190910101526107bb60018661157c565b945050505b806107ca816115aa565b915050610640565b5095945050505050565b600260005414156108345760405162461bcd60e51b815260206004820152601f60248201527f5265656e7472616e637947756172643a207265656e7472616e742063616c6c0060448201526064015b60405180910390fd5b6002600055806108865760405162461bcd60e51b815260206004820152601c60248201527f5072696365206d757374206265206174206c6561737420312077656900000000604482015260640161082b565b60045434146108e35760405162461bcd60e51b8152602060048201526024808201527f5072696365206d75737420626520657175616c20746f206c697374696e6720706044820152637269636560e01b606482015260840161082b565b6108f1600180546001019055565b60006108fc60015490565b9050604051806101000160405280828152602001866001600160a01b03168152602001858152602001336001600160a01b0316815260200160006001600160a01b0316815260200183815260200160001515815260200184815250600560008381526020019081526020016000206000820151816000015560208201518160010160006101000a8154816001600160a01b0302191690836001600160a01b031602179055506040820151816002015560608201518160030160006101000a8154816001600160a01b0302191690836001600160a01b0316021790555060808201518160040160006101000a8154816001600160a01b0302191690836001600160a01b0316021790555060a0820151816005015560c08201518160060160006101000a81548160ff02191690831515021790555060e08201518160070155905050846001600160a01b03166323b872dd3330876040518463ffffffff1660e01b8152600401610a8b939291906001600160a01b039384168152919092166020820152604081019190915260600190565b600060405180830381600087803b158015610aa557600080fd5b505af1158015610ab9573d6000803e3d6000fd5b50506040805133815260006020820181905281830187905260608201526080810187905290518793506001600160a01b038916925084917f51f952abc16b666e917cf9a7e0f49aad730694a1b9c053652e9e3520691b5159919081900360a00190a450506001600055505050565b606081610b4d575050604080518082019091526003815262105b1b60ea1b602082015290565b8160011415610b79575050604080518082019091526007815266436f6f6b696e6760c81b602082015290565b8160021415610ba857505060408051808201909152600a81526954726176656c6c696e6760b01b602082015290565b8160031415610bd5575050604080518082019091526008815267427573696e65737360c01b602082015290565b8160041415610c0057505060408051808201909152600681526543727970746f60d01b602082015290565b8160051415610c2a5750506040805180820190915260058152644d6f6e657960d81b602082015290565b8160061415610c545750506040805180820190915260058152644d7573696360d81b602082015290565b8160071415610c7f575050604080518082019091526006815265105c9d1a5cdd60d21b602082015290565b8160081415610cac5750506040805180820190915260088152675061696e74696e6760c01b602082015290565b8160091415610cd757505060408051808201909152600681526547616d696e6760d01b602082015290565b81600a1415610d035750506040805180820190915260078152664669746e65737360c81b602082015290565b81600b1415610d3057505060408051808201909152600881526750726f706572747960c01b602082015290565b81600c1415610d5e5750506040805180820190915260098152684c6966657374796c6560b81b602082015290565b81600d1415610d8d57505060408051808201909152600a815269125b9d995cdd1b595b9d60b21b602082015290565b505060408051602081019091526000815290565b919050565b60026000541415610df95760405162461bcd60e51b815260206004820152601f60248201527f5265656e7472616e637947756172643a207265656e7472616e742063616c6c00604482015260640161082b565b6002600081815582815260056020819052604090912090810154910154348214610e8d576040805162461bcd60e51b81526020600482015260248101919091527f506c65617365207375626d6974207468652061736b696e67207072696365206960448201527f6e206f7264657220746f20636f6d706c65746520746865207075726368617365606482015260840161082b565b6000838152600560205260408082206003015490516001600160a01b03909116913480156108fc02929091818181858888f19350505050158015610ed5573d6000803e3d6000fd5b506040516323b872dd60e01b8152306004820152336024820152604481018290526001600160a01b038516906323b872dd90606401600060405180830381600087803b158015610f2457600080fd5b505af1158015610f38573d6000803e3d6000fd5b50505060008481526005602052604090206004810180546001600160a01b03191633179055600601805460ff1916600117905550610f7a600280546001019055565b6003546004546040516001600160a01b039092169181156108fc0291906000818181858888f19350505050158015610fb6573d6000803e3d6000fd5b50506001600055505050565b60606000610fcf60015490565b90506000610fdc60025490565b600154610fe9919061154f565b90506000808267ffffffffffffffff81111561100757611007611566565b60405190808252806020026020018201604052801561104057816020015b61102d611350565b8152602001906001900390816110255790505b50905060005b848110156107d257600060058161105e84600161157c565b81526020810191909152604001600020600401546001600160a01b03161480156110a75750866005600061109384600161157c565b815260200190815260200160002060070154145b156111695760006110b982600161157c565b6000818152600560208181526040928390208351610100810185528154815260018201546001600160a01b0390811693820193909352600282015494810194909452600381015482166060850152600481015490911660808401529081015460a0830152600681015460ff16151560c0830152600781015460e083015285519293509185908790811061114e5761114e611594565b602090810291909101015261116460018661157c565b945050505b80611173816115aa565b915050611046565b6060600061118860015490565b905060008060005b838110156111eb5733600560006111a884600161157c565b81526020810191909152604001600020600301546001600160a01b031614156111d9576111d660018461157c565b92505b806111e3816115aa565b915050611190565b5060008267ffffffffffffffff81111561120757611207611566565b60405190808252806020026020018201604052801561124057816020015b61122d611350565b8152602001906001900390816112255790505b50905060005b8481101561032157336005600061125e84600161157c565b81526020810191909152604001600020600301546001600160a01b0316141561133e57600061128e82600161157c565b6000818152600560208181526040928390208351610100810185528154815260018201546001600160a01b0390811693820193909352600282015494810194909452600381015482166060850152600481015490911660808401529081015460a0830152600681015460ff16151560c0830152600781015460e083015285519293509185908790811061132357611323611594565b602090810291909101015261133960018661157c565b945050505b80611348816115aa565b915050611246565b6040518061010001604052806000815260200160006001600160a01b031681526020016000815260200160006001600160a01b0316815260200160006001600160a01b0316815260200160008152602001600015158152602001600081525090565b602080825282518282018190526000919060409081850190868401855b8281101561144457815180518552868101516001600160a01b039081168887015286820151878701526060808301518216908701526080808301519091169086015260a0808201519086015260c08082015115159086015260e0908101519085015261010090930192908501906001016113cf565b5091979650505050505050565b60006020828403121561146357600080fd5b5035919050565b80356001600160a01b0381168114610da157600080fd5b6000806000806080858703121561149757600080fd5b6114a08561146a565b966020860135965060408601359560600135945092505050565b600060208083528351808285015260005b818110156114e7578581018301518582016040015282016114cb565b818111156114f9576000604083870101525b50601f01601f1916929092016040019392505050565b6000806040838503121561152257600080fd5b61152b8361146a565b946020939093013593505050565b634e487b7160e01b600052601160045260246000fd5b60008282101561156157611561611539565b500390565b634e487b7160e01b600052604160045260246000fd5b6000821982111561158f5761158f611539565b500190565b634e487b7160e01b600052603260045260246000fd5b60006000198214156115be576115be611539565b506001019056fea26469706673582212205c8e699ef1f997f4bfe994347dce140622bd2a25cd97a814953cc75aa4ad5b2b64736f6c63430008090033",
  "linkReferences": {},
  "deployedLinkReferences": {}
}