{
  "_format": "hh-sol-artifact-1",
  "contractName": "CampaignContract",
  "sourceName": "contracts/CampaignContract.sol",
  "abi": [
    {
      "inputs": [],
      "stateMutability": "nonpayable",
      "type": "constructor"
    },
    {
      "anonymous": false,
      "inputs": [
        {
          "indexed": false,
          "internalType": "uint256",
          "name": "claimedAt",
          "type": "uint256"
        },
        {
          "indexed": false,
          "internalType": "uint256",
          "name": "claimedFractions",
          "type": "uint256"
        },
        {
          "indexed": false,
          "internalType": "address",
          "name": "walletAddress",
          "type": "address"
        },
        {
          "indexed": false,
          "internalType": "string",
          "name": "claimType",
          "type": "string"
        },
        {
          "indexed": false,
          "internalType": "string",
          "name": "id",
          "type": "string"
        },
        {
          "indexed": false,
          "internalType": "string",
          "name": "campaignId",
          "type": "string"
        }
      ],
      "name": "ClaimCampaign",
      "type": "event"
    },
    {
      "anonymous": false,
      "inputs": [
        {
          "indexed": false,
          "internalType": "string",
          "name": "campaignId",
          "type": "string"
        },
        {
          "components": [
            {
              "internalType": "string",
              "name": "creator",
              "type": "string"
            },
            {
              "internalType": "string",
              "name": "campaignId",
              "type": "string"
            },
            {
              "internalType": "uint256",
              "name": "raise",
              "type": "uint256"
            },
            {
              "internalType": "uint256",
              "name": "amount",
              "type": "uint256"
            },
            {
              "internalType": "enum ICampaignContract.CampaignType",
              "name": "campaignType",
              "type": "uint8"
            },
            {
              "internalType": "uint256",
              "name": "startDate",
              "type": "uint256"
            },
            {
              "internalType": "uint256",
              "name": "endDate",
              "type": "uint256"
            },
            {
              "internalType": "uint256",
              "name": "fractionCount",
              "type": "uint256"
            },
            {
              "internalType": "uint256",
              "name": "remainFractions",
              "type": "uint256"
            },
            {
              "internalType": "uint256",
              "name": "pricePerFraction",
              "type": "uint256"
            },
            {
              "internalType": "bool",
              "name": "goal",
              "type": "bool"
            }
          ],
          "indexed": false,
          "internalType": "struct ICampaignContract.Campaign",
          "name": "campaign",
          "type": "tuple"
        },
        {
          "indexed": false,
          "internalType": "string",
          "name": "urlContent",
          "type": "string"
        }
      ],
      "name": "CreateCampaign",
      "type": "event"
    },
    {
      "anonymous": false,
      "inputs": [
        {
          "indexed": false,
          "internalType": "string",
          "name": "fanId",
          "type": "string"
        },
        {
          "indexed": false,
          "internalType": "string",
          "name": "campaignId",
          "type": "string"
        },
        {
          "indexed": false,
          "internalType": "uint256",
          "name": "fractionAmount",
          "type": "uint256"
        },
        {
          "indexed": false,
          "internalType": "uint256",
          "name": "fundedAmount",
          "type": "uint256"
        }
      ],
      "name": "FundCampaign",
      "type": "event"
    },
    {
      "anonymous": false,
      "inputs": [
        {
          "indexed": false,
          "internalType": "string",
          "name": "campaignId",
          "type": "string"
        },
        {
          "components": [
            {
              "internalType": "string",
              "name": "creator",
              "type": "string"
            },
            {
              "internalType": "string",
              "name": "campaignId",
              "type": "string"
            },
            {
              "internalType": "uint256",
              "name": "raise",
              "type": "uint256"
            },
            {
              "internalType": "uint256",
              "name": "amount",
              "type": "uint256"
            },
            {
              "internalType": "enum ICampaignContract.CampaignType",
              "name": "campaignType",
              "type": "uint8"
            },
            {
              "internalType": "uint256",
              "name": "startDate",
              "type": "uint256"
            },
            {
              "internalType": "uint256",
              "name": "endDate",
              "type": "uint256"
            },
            {
              "internalType": "uint256",
              "name": "fractionCount",
              "type": "uint256"
            },
            {
              "internalType": "uint256",
              "name": "remainFractions",
              "type": "uint256"
            },
            {
              "internalType": "uint256",
              "name": "pricePerFraction",
              "type": "uint256"
            },
            {
              "internalType": "bool",
              "name": "goal",
              "type": "bool"
            }
          ],
          "indexed": false,
          "internalType": "struct ICampaignContract.Campaign",
          "name": "campaign",
          "type": "tuple"
        }
      ],
      "name": "GoalReached",
      "type": "event"
    },
    {
      "anonymous": false,
      "inputs": [
        {
          "indexed": true,
          "internalType": "address",
          "name": "previousOwner",
          "type": "address"
        },
        {
          "indexed": true,
          "internalType": "address",
          "name": "newOwner",
          "type": "address"
        }
      ],
      "name": "OwnershipTransferred",
      "type": "event"
    },
    {
      "inputs": [
        {
          "internalType": "string",
          "name": "_campaignId",
          "type": "string"
        },
        {
          "internalType": "address",
          "name": "_creatorWallet",
          "type": "address"
        },
        {
          "internalType": "uint256",
          "name": "_fractionCount",
          "type": "uint256"
        }
      ],
      "name": "claimFractionCreator",
      "outputs": [],
      "stateMutability": "nonpayable",
      "type": "function"
    },
    {
      "inputs": [
        {
          "internalType": "string",
          "name": "_campaignId",
          "type": "string"
        },
        {
          "internalType": "string",
          "name": "_typeClaim",
          "type": "string"
        },
        {
          "internalType": "address",
          "name": "_otherWallet",
          "type": "address"
        },
        {
          "internalType": "uint256",
          "name": "_fractionCount",
          "type": "uint256"
        }
      ],
      "name": "claimFractionOther",
      "outputs": [],
      "stateMutability": "nonpayable",
      "type": "function"
    },
    {
      "inputs": [
        {
          "internalType": "string",
          "name": "_campaignId",
          "type": "string"
        }
      ],
      "name": "claimFractionSJAssetWallet",
      "outputs": [],
      "stateMutability": "nonpayable",
      "type": "function"
    },
    {
      "inputs": [
        {
          "internalType": "string",
          "name": "_campaignId",
          "type": "string"
        },
        {
          "internalType": "string",
          "name": "_fanId",
          "type": "string"
        },
        {
          "internalType": "address",
          "name": "_fanAddress",
          "type": "address"
        }
      ],
      "name": "claimFractionSuperfan",
      "outputs": [],
      "stateMutability": "nonpayable",
      "type": "function"
    },
    {
      "inputs": [],
      "name": "collectableCampaignsAssetWallet",
      "outputs": [
        {
          "internalType": "address",
          "name": "",
          "type": "address"
        }
      ],
      "stateMutability": "view",
      "type": "function"
    },
    {
      "inputs": [
        {
          "internalType": "string",
          "name": "_creator",
          "type": "string"
        },
        {
          "internalType": "string",
          "name": "_campaignId",
          "type": "string"
        },
        {
          "internalType": "string",
          "name": "_uri",
          "type": "string"
        },
        {
          "internalType": "uint256",
          "name": "_raise",
          "type": "uint256"
        },
        {
          "internalType": "enum ICampaignContract.CampaignType",
          "name": "_campaignType",
          "type": "uint8"
        },
        {
          "internalType": "uint256",
          "name": "_startDate",
          "type": "uint256"
        },
        {
          "internalType": "uint256",
          "name": "_endDate",
          "type": "uint256"
        },
        {
          "internalType": "uint256",
          "name": "_fractionCount",
          "type": "uint256"
        },
        {
          "internalType": "uint256",
          "name": "_priceFraction",
          "type": "uint256"
        }
      ],
      "name": "createCampaign",
      "outputs": [],
      "stateMutability": "nonpayable",
      "type": "function"
    },
    {
      "inputs": [],
      "name": "fractionContract",
      "outputs": [
        {
          "internalType": "address",
          "name": "",
          "type": "address"
        }
      ],
      "stateMutability": "view",
      "type": "function"
    },
    {
      "inputs": [
        {
          "internalType": "string",
          "name": "_campaignId",
          "type": "string"
        },
        {
          "internalType": "uint256",
          "name": "_fractionAmount",
          "type": "uint256"
        },
        {
          "internalType": "string",
          "name": "investor",
          "type": "string"
        }
      ],
      "name": "fundCampaign",
      "outputs": [],
      "stateMutability": "nonpayable",
      "type": "function"
    },
    {
      "inputs": [
        {
          "internalType": "string",
          "name": "_campaignId",
          "type": "string"
        }
      ],
      "name": "getCampaign",
      "outputs": [
        {
          "components": [
            {
              "internalType": "string",
              "name": "creator",
              "type": "string"
            },
            {
              "internalType": "string",
              "name": "campaignId",
              "type": "string"
            },
            {
              "internalType": "uint256",
              "name": "raise",
              "type": "uint256"
            },
            {
              "internalType": "uint256",
              "name": "amount",
              "type": "uint256"
            },
            {
              "internalType": "enum ICampaignContract.CampaignType",
              "name": "campaignType",
              "type": "uint8"
            },
            {
              "internalType": "uint256",
              "name": "startDate",
              "type": "uint256"
            },
            {
              "internalType": "uint256",
              "name": "endDate",
              "type": "uint256"
            },
            {
              "internalType": "uint256",
              "name": "fractionCount",
              "type": "uint256"
            },
            {
              "internalType": "uint256",
              "name": "remainFractions",
              "type": "uint256"
            },
            {
              "internalType": "uint256",
              "name": "pricePerFraction",
              "type": "uint256"
            },
            {
              "internalType": "bool",
              "name": "goal",
              "type": "bool"
            }
          ],
          "internalType": "struct ICampaignContract.Campaign",
          "name": "",
          "type": "tuple"
        }
      ],
      "stateMutability": "view",
      "type": "function"
    },
    {
      "inputs": [],
      "name": "getCampaigns",
      "outputs": [
        {
          "components": [
            {
              "internalType": "string",
              "name": "creator",
              "type": "string"
            },
            {
              "internalType": "string",
              "name": "campaignId",
              "type": "string"
            },
            {
              "internalType": "uint256",
              "name": "raise",
              "type": "uint256"
            },
            {
              "internalType": "uint256",
              "name": "amount",
              "type": "uint256"
            },
            {
              "internalType": "enum ICampaignContract.CampaignType",
              "name": "campaignType",
              "type": "uint8"
            },
            {
              "internalType": "uint256",
              "name": "startDate",
              "type": "uint256"
            },
            {
              "internalType": "uint256",
              "name": "endDate",
              "type": "uint256"
            },
            {
              "internalType": "uint256",
              "name": "fractionCount",
              "type": "uint256"
            },
            {
              "internalType": "uint256",
              "name": "remainFractions",
              "type": "uint256"
            },
            {
              "internalType": "uint256",
              "name": "pricePerFraction",
              "type": "uint256"
            },
            {
              "internalType": "bool",
              "name": "goal",
              "type": "bool"
            }
          ],
          "internalType": "struct ICampaignContract.Campaign[]",
          "name": "",
          "type": "tuple[]"
        }
      ],
      "stateMutability": "view",
      "type": "function"
    },
    {
      "inputs": [
        {
          "internalType": "address",
          "name": "_collectableCampaignsAssetWallet",
          "type": "address"
        }
      ],
      "name": "initialize",
      "outputs": [],
      "stateMutability": "payable",
      "type": "function"
    },
    {
      "inputs": [
        {
          "internalType": "address",
          "name": "",
          "type": "address"
        },
        {
          "internalType": "address",
          "name": "",
          "type": "address"
        },
        {
          "internalType": "uint256[]",
          "name": "",
          "type": "uint256[]"
        },
        {
          "internalType": "uint256[]",
          "name": "",
          "type": "uint256[]"
        },
        {
          "internalType": "bytes",
          "name": "",
          "type": "bytes"
        }
      ],
      "name": "onERC1155BatchReceived",
      "outputs": [
        {
          "internalType": "bytes4",
          "name": "",
          "type": "bytes4"
        }
      ],
      "stateMutability": "nonpayable",
      "type": "function"
    },
    {
      "inputs": [
        {
          "internalType": "address",
          "name": "",
          "type": "address"
        },
        {
          "internalType": "address",
          "name": "",
          "type": "address"
        },
        {
          "internalType": "uint256",
          "name": "",
          "type": "uint256"
        },
        {
          "internalType": "uint256",
          "name": "",
          "type": "uint256"
        },
        {
          "internalType": "bytes",
          "name": "",
          "type": "bytes"
        }
      ],
      "name": "onERC1155Received",
      "outputs": [
        {
          "internalType": "bytes4",
          "name": "",
          "type": "bytes4"
        }
      ],
      "stateMutability": "nonpayable",
      "type": "function"
    },
    {
      "inputs": [],
      "name": "owner",
      "outputs": [
        {
          "internalType": "address",
          "name": "",
          "type": "address"
        }
      ],
      "stateMutability": "view",
      "type": "function"
    },
    {
      "inputs": [],
      "name": "renounceOwnership",
      "outputs": [],
      "stateMutability": "nonpayable",
      "type": "function"
    },
    {
      "inputs": [
        {
          "internalType": "address",
          "name": "_collectableCampaignsAssetWallet",
          "type": "address"
        }
      ],
      "name": "setCollectableCampaignsAssetWallet",
      "outputs": [],
      "stateMutability": "nonpayable",
      "type": "function"
    },
    {
      "inputs": [
        {
          "internalType": "address",
          "name": "_fractionContract",
          "type": "address"
        }
      ],
      "name": "setFractionContract",
      "outputs": [],
      "stateMutability": "nonpayable",
      "type": "function"
    },
    {
      "inputs": [
        {
          "internalType": "string",
          "name": "_campaignId",
          "type": "string"
        }
      ],
      "name": "setGoalReached",
      "outputs": [],
      "stateMutability": "nonpayable",
      "type": "function"
    },
    {
      "inputs": [
        {
          "internalType": "address",
          "name": "vault",
          "type": "address"
        }
      ],
      "name": "setVaultWallet",
      "outputs": [],
      "stateMutability": "nonpayable",
      "type": "function"
    },
    {
      "inputs": [
        {
          "internalType": "bytes4",
          "name": "interfaceId",
          "type": "bytes4"
        }
      ],
      "name": "supportsInterface",
      "outputs": [
        {
          "internalType": "bool",
          "name": "",
          "type": "bool"
        }
      ],
      "stateMutability": "view",
      "type": "function"
    },
    {
      "inputs": [
        {
          "internalType": "address",
          "name": "newOwner",
          "type": "address"
        }
      ],
      "name": "transferOwnership",
      "outputs": [],
      "stateMutability": "nonpayable",
      "type": "function"
    },
    {
      "inputs": [],
      "name": "vaultWallet",
      "outputs": [
        {
          "internalType": "address",
          "name": "",
          "type": "address"
        }
      ],
      "stateMutability": "view",
      "type": "function"
    }
  ],
  "bytecode": "0x60806040523480156200001157600080fd5b506200001d336200011e565b600054600160a81b900460ff166200004357600054600160a01b900460ff16156200004d565b6200004d6200016e565b620000b55760405162461bcd60e51b815260206004820152602e60248201527f496e697469616c697a61626c653a20636f6e747261637420697320616c72656160448201526d191e481a5b9a5d1a585b1a5e995960921b606482015260840160405180910390fd5b600054600160a81b900460ff16158015620000e0576000805461ffff60a01b191661010160a01b1790555b600054600280546001600160a01b0319166001600160a01b03909216919091179055801562000117576000805460ff60a81b191690555b506200019b565b600080546001600160a01b038381166001600160a01b0319831681178455604051919092169283917f8be0079c531659141344cd1fd0a4f28419497f9722a3daafe3b4186f6b6457e09190a35050565b600062000186306200018c60201b620020521760201c565b15905090565b6001600160a01b03163b151590565b6130c980620001ab6000396000f3fe6080604052600436106101355760003560e01c80638da5cb5b116100ab578063c0d77a881161006f578063c0d77a8814610390578063c2873dae146103b0578063c4d66de8146103d0578063d774c21b146103e3578063f23a6e6114610403578063f2fde38b1461042f57600080fd5b80638da5cb5b146102cb57806395e93b7c146102e957806397200aa114610309578063a6b0363314610329578063bc197c811461034b57600080fd5b80634d446070116100fd5780634d4460701461020957806352bf36ec1461022957806355a72a2e1461025657806361f1c5ba14610276578063715018a614610296578063796f18e7146102ab57600080fd5b806301ffc9a71461013a578063144b77851461016f578063211d9634146101915780632b18ab02146101c9578063312dbabf146101e9575b600080fd5b34801561014657600080fd5b5061015a6101553660046122d0565b61044f565b60405190151581526020015b60405180910390f35b34801561017b57600080fd5b5061018f61018a36600461231d565b610486565b005b34801561019d57600080fd5b506003546101b1906001600160a01b031681565b6040516001600160a01b039091168152602001610166565b3480156101d557600080fd5b5061018f6101e43660046123fe565b6104db565b3480156101f557600080fd5b5061018f6102043660046124c6565b610a0f565b34801561021557600080fd5b5061018f610224366004612542565b610de6565b34801561023557600080fd5b506102496102443660046125af565b61113b565b604051610166919061272e565b34801561026257600080fd5b5061018f610271366004612741565b61131f565b34801561028257600080fd5b506002546101b1906001600160a01b031681565b3480156102a257600080fd5b5061018f6115ba565b3480156102b757600080fd5b5061018f6102c63660046125af565b6115f0565b3480156102d757600080fd5b506000546001600160a01b03166101b1565b3480156102f557600080fd5b5061018f6103043660046127b5565b611991565b34801561031557600080fd5b5061018f61032436600461231d565b611a37565b34801561033557600080fd5b5061033e611aef565b604051610166919061280c565b34801561035757600080fd5b506103776103663660046128ee565b63bc197c8160e01b95945050505050565b6040516001600160e01b03199091168152602001610166565b34801561039c57600080fd5b5061018f6103ab36600461231d565b611d7d565b3480156103bc57600080fd5b5061018f6103cb3660046125af565b611e1f565b61018f6103de36600461231d565b611ecf565b3480156103ef57600080fd5b506001546101b1906001600160a01b031681565b34801561040f57600080fd5b5061037761041e366004612998565b63f23a6e6160e01b95945050505050565b34801561043b57600080fd5b5061018f61044a36600461231d565b611fb7565b60006001600160e01b03198216630271189760e51b148061048057506301ffc9a760e01b6001600160e01b03198316145b92915050565b6000546001600160a01b031633146104b95760405162461bcd60e51b81526004016104b0906129fd565b60405180910390fd5b600180546001600160a01b0319166001600160a01b0392909216919091179055565b6000546001600160a01b031633146105055760405162461bcd60e51b81526004016104b0906129fd565b87838382516000141561057a5760405162461bcd60e51b8152602060048201526043602482015260008051602061307483398151915260448201527f3a20596f75206d757374207365742063616d706169676e4964206e6f7420656d60648201526270747960e81b608482015260a4016104b0565b61058381612061565b6105f35760405162461bcd60e51b8152602060048201526047602482015260008051602061307483398151915260448201527f3a20596f75206d75737420736574206672616374696f6e20646976697369626c6064820152660652062792031360cc1b608482015260a4016104b0565b6002546001600160a01b03166106695760405162461bcd60e51b8152602060048201526041602482015260008051602061307483398151915260448201527f3a20596f75206d75737420736574207661756c742077616c6c657420666972736064820152601d60fa1b608482015260a4016104b0565b4282116106d65760405162461bcd60e51b8152602060048201526041602482015260008051602061307483398151915260448201527f3a2043616d706169676e206d75737420656e6420696e207468652066757475726064820152606560f81b608482015260a4016104b0565b6106df8361207f565b156107395760405162461bcd60e51b815260206004820152603660248201526000805160206130748339815191526044820152750e8e8810d85b5c185a59db881a5cc8195e1a5cdd195960521b60648201526084016104b0565b6001546001600160a01b031661079d5760405162461bcd60e51b8152602060048201526024808201527f596f75206d75737420736574206672616374696f6e20636f6e747261637420666044820152631a5c9cdd60e21b60648201526084016104b0565b60006107a860045490565b905060006040518061016001604052808f81526020018e81526020018c8152602001600081526020018b60018111156107e3576107e3612648565b81526020018a8152602001898152602001888152602001606489605a6108099190612a48565b6108139190612a7d565b81526020018781526020016000151581525090508060068e6040516108389190612a91565b908152602001604051809103902060008201518160000190805190602001906108629291906121ca565b50602082810151805161087b92600185019201906121ca565b506040820151600282015560608201516003820155608082015160048201805460ff1916600183818111156108b2576108b2612648565b021790555060a0820151816005015560c0820151816006015560e082015181600701556101008201518160080155610120820151816009015561014082015181600a0160006101000a81548160ff0219169083151502179055509050508c6005600084815260200190815260200160002090805190602001906109369291906121ca565b50610945600480546001019055565b6000600160009054906101000a90046001600160a01b03169050806001600160a01b031663f7bc69848f8f8b306040518563ffffffff1660e01b81526004016109919493929190612aad565b600060405180830381600087803b1580156109ab57600080fd5b505af11580156109bf573d6000803e3d6000fd5b505050507f760d5a0e98ddd96108ffe87f89b0b316c63624175f3057482af878f2b4cd53ee8e838f6040516109f693929190612af4565b60405180910390a1505050505050505050505050505050565b6000546001600160a01b03163314610a395760405162461bcd60e51b81526004016104b0906129fd565b83610a43816120ac565b15610a605760405162461bcd60e51b81526004016104b090612b37565b6000600686604051610a729190612a91565b908152602001604051809103902060405180610160016040529081600082018054610a9c90612b82565b80601f0160208091040260200160405190810160405280929190818152602001828054610ac890612b82565b8015610b155780601f10610aea57610100808354040283529160200191610b15565b820191906000526020600020905b815481529060010190602001808311610af857829003601f168201915b50505050508152602001600182018054610b2e90612b82565b80601f0160208091040260200160405190810160405280929190818152602001828054610b5a90612b82565b8015610ba75780601f10610b7c57610100808354040283529160200191610ba7565b820191906000526020600020905b815481529060010190602001808311610b8a57829003601f168201915b50505091835250506002820154602082015260038201546040820152600482015460609091019060ff166001811115610be257610be2612648565b6001811115610bf357610bf3612648565b815260058201546020820152600682015460408201526007820154606082015260088201546080820152600982015460a0820152600a9091015460ff16151560c09091015290508215801590610c4d575082816101000151115b610cb15760405162461bcd60e51b815260206004820152602f60248201527f43616d706169676e436f6e74726163743a3a636c61696d4672616374696f6e4f60448201526e1d1a195c8e93dd995c881b1a5b5a5d608a1b60648201526084016104b0565b600154604051636f5f4c4f60e01b81526001600160a01b03909116906000908290636f5f4c4f90610ce6908b90600401612bbd565b60206040518083038186803b158015610cfe57600080fd5b505afa158015610d12573d6000803e3d6000fd5b505050506040513d601f19601f82011682018060405250810190610d369190612bd0565b604051637921219560e11b81529091506001600160a01b0383169063f242432a90610d6b9030908a9086908b90600401612be9565b600060405180830381600087803b158015610d8557600080fd5b505af1158015610d99573d6000803e3d6000fd5b505050507fee831c7bba350168f78e6ce7dfaae01d26ebc14dde1793f24c2e5af3f3d5f9914286888a8c604051610dd4959493929190612c2e565b60405180910390a15050505050505050565b8282610df18261207f565b610e5b5760405162461bcd60e51b8152602060048201526041602482015260008051602061305483398151915260448201527f4e6f6e206578697374656e742063616d706169676e2069642070726f766964656064820152601960fa1b608482015260a4016104b0565b610e64826120da565b610eba5760405162461bcd60e51b8152602060048201526033602482015260008051602061305483398151915260448201527243616d706169676e206e6f742061637469766560681b60648201526084016104b0565b610ec3826120ac565b15610ee05760405162461bcd60e51b81526004016104b090612b37565b60008111610f505760405162461bcd60e51b8152602060048201526043602482015260008051602061305483398151915260448201527f596f75206d7573742073656e6420736f6d6520616d6f756e74206672616374696064820152626f6e7360e81b608482015260a4016104b0565b6000546001600160a01b03163314610f7a5760405162461bcd60e51b81526004016104b0906129fd565b6000600686604051610f8c9190612a91565b908152602001604051809103902090506000600787604051610fae9190612a91565b908152602001604051809103902085604051610fca9190612a91565b90815260200160405180910390209050816008015486111561105d5760405162461bcd60e51b8152602060048201526052602482015260008051602061305483398151915260448201527f4e756d626572206f6620667261676d656e74206d757374206c6573732074686160648201527137103932b6b0b4b710333930b3b6b2b73a1760711b608482015260a4016104b0565b600082600901548761106f9190612a48565b9050808360030160008282546110859190612c8b565b92505081905550868360080160008282546110a09190612ca3565b90915550508154819083906000906110b9908490612c8b565b92505081905550868260010160008282546110d49190612c8b565b909155505060028201805460ff191690556040517f9f4357186a6db608c4fbad01e721e6d5cb0f1e602e636ddbfc0349925b341b869061111b9088908b908b908690612cba565b60405180910390a1611131836008015489612107565b5050505050505050565b61114361224e565b6006826040516111539190612a91565b90815260200160405180910390206040518061016001604052908160008201805461117d90612b82565b80601f01602080910402602001604051908101604052809291908181526020018280546111a990612b82565b80156111f65780601f106111cb576101008083540402835291602001916111f6565b820191906000526020600020905b8154815290600101906020018083116111d957829003601f168201915b5050505050815260200160018201805461120f90612b82565b80601f016020809104026020016040519081016040528092919081815260200182805461123b90612b82565b80156112885780601f1061125d57610100808354040283529160200191611288565b820191906000526020600020905b81548152906001019060200180831161126b57829003601f168201915b50505091835250506002820154602082015260038201546040820152600482015460609091019060ff1660018111156112c3576112c3612648565b60018111156112d4576112d4612648565b815260058201546020820152600682015460408201526007820154606082015260088201546080820152600982015460a0820152600a9091015460ff16151560c09091015292915050565b6000546001600160a01b031633146113495760405162461bcd60e51b81526004016104b0906129fd565b82611353816120da565b15806113635750611363816120ac565b61137f5760405162461bcd60e51b81526004016104b090612cf3565b60006007856040516113919190612a91565b9081526020016040518091039020846040516113ad9190612a91565b90815260200160405180910390209050600081600001541180156113d5575060008160010154115b6114215760405162461bcd60e51b815260206004820181905260248201527f596f7520617265206e6f742066756e64656420746869732063616d706169676e60448201526064016104b0565b600281015460ff1615156001141561146e5760405162461bcd60e51b815260206004820152601060248201526f165bdd481a185d994818db185a5b595960821b60448201526064016104b0565b600154604051636f5f4c4f60e01b81526001600160a01b03909116906000908290636f5f4c4f906114a3908a90600401612bbd565b60206040518083038186803b1580156114bb57600080fd5b505afa1580156114cf573d6000803e3d6000fd5b505050506040513d601f19601f820116820180604052508101906114f39190612bd0565b6001840154604051637921219560e11b81529192506001600160a01b0384169163f242432a9161152c9130918a91879190600401612be9565b600060405180830381600087803b15801561154657600080fd5b505af115801561155a573d6000803e3d6000fd5b50505060028401805460ff191660019081179091558401546040517fee831c7bba350168f78e6ce7dfaae01d26ebc14dde1793f24c2e5af3f3d5f99192506115a991429189908b908d90612d3f565b60405180910390a150505050505050565b6000546001600160a01b031633146115e45760405162461bcd60e51b81526004016104b0906129fd565b6115ee600061217a565b565b6000546001600160a01b0316331461161a5760405162461bcd60e51b81526004016104b0906129fd565b80611624816120da565b15806116345750611634816120ac565b6116505760405162461bcd60e51b81526004016104b090612cf3565b60006006836040516116629190612a91565b90815260200160405180910390206040518061016001604052908160008201805461168c90612b82565b80601f01602080910402602001604051908101604052809291908181526020018280546116b890612b82565b80156117055780601f106116da57610100808354040283529160200191611705565b820191906000526020600020905b8154815290600101906020018083116116e857829003601f168201915b5050505050815260200160018201805461171e90612b82565b80601f016020809104026020016040519081016040528092919081815260200182805461174a90612b82565b80156117975780601f1061176c57610100808354040283529160200191611797565b820191906000526020600020905b81548152906001019060200180831161177a57829003601f168201915b50505091835250506002820154602082015260038201546040820152600482015460609091019060ff1660018111156117d2576117d2612648565b60018111156117e3576117e3612648565b81526005820154602082015260068201546040808301919091526007830154606083015260088301546080830152600983015460a0830152600a9092015460ff16151560c0909101526001549051636f5f4c4f60e01b81529192506001600160a01b0316906000908290636f5f4c4f90611861908890600401612bbd565b60206040518083038186803b15801561187957600080fd5b505afa15801561188d573d6000803e3d6000fd5b505050506040513d601f19601f820116820180604052508101906118b19190612bd0565b9050600060648460e00151600a6118c89190612a48565b6118d29190612a7d565b600354604051637921219560e11b81529192506001600160a01b038086169263f242432a9261190c92309291169087908790600401612be9565b600060405180830381600087803b15801561192657600080fd5b505af115801561193a573d6000803e3d6000fd5b50506003546040517fee831c7bba350168f78e6ce7dfaae01d26ebc14dde1793f24c2e5af3f3d5f99193506119819250429185916001600160a01b03909116908b90612da7565b60405180910390a1505050505050565b6000546001600160a01b031633146119bb5760405162461bcd60e51b81526004016104b0906129fd565b826119c5816120ac565b156119e25760405162461bcd60e51b81526004016104b090612b37565b60405163312dbabf60e01b8152309063312dbabf90611a0990879087908790600401612e08565b600060405180830381600087803b158015611a2357600080fd5b505af1158015611131573d6000803e3d6000fd5b6003546001600160a01b031615611acd5760405162461bcd60e51b815260206004820152604e60248201527f43616d706169676e436f6e74726163743a3a736574436f6c6c65637461626c6560448201527f43616d706169676e73417373657457616c6c65743a2043616e206f6e6c79206260648201526d6520736574206f6e652074696d6560901b608482015260a4016104b0565b600380546001600160a01b0319166001600160a01b0392909216919091179055565b60606000611afc60045490565b905060008167ffffffffffffffff811115611b1957611b19612338565b604051908082528060200260200182016040528015611b5257816020015b611b3f61224e565b815260200190600190039081611b375790505b50905060005b82811015611d7657600081815260056020526040908190209051600691611b7e91612e61565b908152602001604051809103902060405180610160016040529081600082018054611ba890612b82565b80601f0160208091040260200160405190810160405280929190818152602001828054611bd490612b82565b8015611c215780601f10611bf657610100808354040283529160200191611c21565b820191906000526020600020905b815481529060010190602001808311611c0457829003601f168201915b50505050508152602001600182018054611c3a90612b82565b80601f0160208091040260200160405190810160405280929190818152602001828054611c6690612b82565b8015611cb35780601f10611c8857610100808354040283529160200191611cb3565b820191906000526020600020905b815481529060010190602001808311611c9657829003601f168201915b50505091835250506002820154602082015260038201546040820152600482015460609091019060ff166001811115611cee57611cee612648565b6001811115611cff57611cff612648565b815260058201546020820152600682015460408201526007820154606082015260088201546080820152600982015460a0820152600a9091015460ff16151560c0909101528251839083908110611d5857611d58612ed3565b60200260200101819052508080611d6e90612ee9565b915050611b58565b5092915050565b6000546001600160a01b03163314611da75760405162461bcd60e51b81526004016104b0906129fd565b6001600160a01b038116611dfd5760405162461bcd60e51b815260206004820152601c60248201527f5661756c742077616c6c65742063616e6e6f7420626520656d7074790000000060448201526064016104b0565b600280546001600160a01b0319166001600160a01b0392909216919091179055565b6000546001600160a01b03163314611e495760405162461bcd60e51b81526004016104b0906129fd565b6000600682604051611e5b9190612a91565b9081526020016040518091039020905042816006015410611ebe5760405162461bcd60e51b815260206004820152601b60248201527f546869732063616d706169676e206973206e6f7420656e6465642e000000000060448201526064016104b0565b600a01805460ff1916600117905550565b600054600160a81b900460ff16611ef357600054600160a01b900460ff1615611ef7565b303b155b611f5a5760405162461bcd60e51b815260206004820152602e60248201527f496e697469616c697a61626c653a20636f6e747261637420697320616c72656160448201526d191e481a5b9a5d1a585b1a5e995960921b60648201526084016104b0565b600054600160a81b900460ff16158015611f84576000805461ffff60a01b191661010160a01b1790555b600380546001600160a01b0319166001600160a01b0384161790558015611fb3576000805460ff60a81b191690555b5050565b6000546001600160a01b03163314611fe15760405162461bcd60e51b81526004016104b0906129fd565b6001600160a01b0381166120465760405162461bcd60e51b815260206004820152602660248201527f4f776e61626c653a206e6577206f776e657220697320746865207a65726f206160448201526564647265737360d01b60648201526084016104b0565b61204f8161217a565b50565b6001600160a01b03163b151590565b600080821180156104805750612078600a83612f04565b1592915050565b60006006826040516120919190612a91565b90815260405190819003602001902060070154151592915050565b60006006826040516120be9190612a91565b908152604051908190036020019020600a015460ff1692915050565b6000426006836040516120ed9190612a91565b908152602001604051809103902060060154119050919050565b81611fb357600060068260405161211e9190612a91565b908152604051908190036020018120600a8101805460ff1916600117905591507fdd966553829c2c2711e5f118a007d5c55bc9e3b0f5c1d0728312067c3d0397fc9061216d9084908490612f8f565b60405180910390a1505050565b600080546001600160a01b038381166001600160a01b0319831681178455604051919092169283917f8be0079c531659141344cd1fd0a4f28419497f9722a3daafe3b4186f6b6457e09190a35050565b8280546121d690612b82565b90600052602060002090601f0160209004810192826121f8576000855561223e565b82601f1061221157805160ff191683800117855561223e565b8280016001018555821561223e579182015b8281111561223e578251825591602001919060010190612223565b5061224a9291506122bb565b5090565b604051806101600160405280606081526020016060815260200160008152602001600081526020016000600181111561228957612289612648565b815260200160008152602001600081526020016000815260200160008152602001600081526020016000151581525090565b5b8082111561224a57600081556001016122bc565b6000602082840312156122e257600080fd5b81356001600160e01b0319811681146122fa57600080fd5b9392505050565b80356001600160a01b038116811461231857600080fd5b919050565b60006020828403121561232f57600080fd5b6122fa82612301565b634e487b7160e01b600052604160045260246000fd5b604051601f8201601f1916810167ffffffffffffffff8111828210171561237757612377612338565b604052919050565b600082601f83011261239057600080fd5b813567ffffffffffffffff8111156123aa576123aa612338565b6123bd601f8201601f191660200161234e565b8181528460208386010111156123d257600080fd5b816020850160208301376000918101602001919091529392505050565b80356002811061231857600080fd5b60008060008060008060008060006101208a8c03121561241d57600080fd5b893567ffffffffffffffff8082111561243557600080fd5b6124418d838e0161237f565b9a5060208c013591508082111561245757600080fd5b6124638d838e0161237f565b995060408c013591508082111561247957600080fd5b506124868c828d0161237f565b97505060608a0135955061249c60808b016123ef565b989b979a50959894979660a0860135965060c08601359560e0810135955061010001359350915050565b600080600080608085870312156124dc57600080fd5b843567ffffffffffffffff808211156124f457600080fd5b6125008883890161237f565b9550602087013591508082111561251657600080fd5b506125238782880161237f565b93505061253260408601612301565b9396929550929360600135925050565b60008060006060848603121561255757600080fd5b833567ffffffffffffffff8082111561256f57600080fd5b61257b8783880161237f565b945060208601359350604086013591508082111561259857600080fd5b506125a58682870161237f565b9150509250925092565b6000602082840312156125c157600080fd5b813567ffffffffffffffff8111156125d857600080fd5b6125e48482850161237f565b949350505050565b60005b838110156126075781810151838201526020016125ef565b83811115612616576000848401525b50505050565b600081518084526126348160208601602086016125ec565b601f01601f19169290920160200192915050565b634e487b7160e01b600052602160045260246000fd5b6002811061267c57634e487b7160e01b600052602160045260246000fd5b9052565b600061016082518185526126968286018261261c565b915050602083015184820360208601526126b0828261261c565b915050604083015160408501526060830151606085015260808301516126d9608086018261265e565b5060a083015160a085015260c083015160c085015260e083015160e0850152610100808401518186015250610120808401518186015250610140808401516127248287018215159052565b5090949350505050565b6020815260006122fa6020830184612680565b60008060006060848603121561275657600080fd5b833567ffffffffffffffff8082111561276e57600080fd5b61277a8783880161237f565b9450602086013591508082111561279057600080fd5b5061279d8682870161237f565b9250506127ac60408501612301565b90509250925092565b6000806000606084860312156127ca57600080fd5b833567ffffffffffffffff8111156127e157600080fd5b6127ed8682870161237f565b9350506127fc60208501612301565b9150604084013590509250925092565b6000602080830181845280855180835260408601915060408160051b870101925083870160005b8281101561286157603f1988860301845261284f858351612680565b94509285019290850190600101612833565b5092979650505050505050565b600082601f83011261287f57600080fd5b8135602067ffffffffffffffff82111561289b5761289b612338565b8160051b6128aa82820161234e565b92835284810182019282810190878511156128c457600080fd5b83870192505b848310156128e3578235825291830191908301906128ca565b979650505050505050565b600080600080600060a0868803121561290657600080fd5b61290f86612301565b945061291d60208701612301565b9350604086013567ffffffffffffffff8082111561293a57600080fd5b61294689838a0161286e565b9450606088013591508082111561295c57600080fd5b61296889838a0161286e565b9350608088013591508082111561297e57600080fd5b5061298b8882890161237f565b9150509295509295909350565b600080600080600060a086880312156129b057600080fd5b6129b986612301565b94506129c760208701612301565b93506040860135925060608601359150608086013567ffffffffffffffff8111156129f157600080fd5b61298b8882890161237f565b6020808252818101527f4f776e61626c653a2063616c6c6572206973206e6f7420746865206f776e6572604082015260600190565b634e487b7160e01b600052601160045260246000fd5b6000816000190483118215151615612a6257612a62612a32565b500290565b634e487b7160e01b600052601260045260246000fd5b600082612a8c57612a8c612a67565b500490565b60008251612aa38184602087016125ec565b9190910192915050565b608081526000612ac0608083018761261c565b8281036020840152612ad2818761261c565b604084019590955250506001600160a01b039190911660609091015292915050565b606081526000612b07606083018661261c565b8281036020840152612b198186612680565b90508281036040840152612b2d818561261c565b9695505050505050565b602080825260389082015260008051602061305483398151915260408201527f43616d7061696e6720697320476f616c20526561636865640000000000000000606082015260800190565b600181811c90821680612b9657607f821691505b60208210811415612bb757634e487b7160e01b600052602260045260246000fd5b50919050565b6020815260006122fa602083018461261c565b600060208284031215612be257600080fd5b5051919050565b6001600160a01b0394851681529290931660208301526040820152606081019190915260a060808201819052600490820152630307830360e41b60c082015260e00190565b85815284602082015260018060a01b038416604082015260c060608201526000612c5b60c083018561261c565b828103806080850152600082526020810160a085015250612c7f602082018561261c565b98975050505050505050565b60008219821115612c9e57612c9e612a32565b500190565b600082821015612cb557612cb5612a32565b500390565b608081526000612ccd608083018761261c565b8281036020840152612cdf818761261c565b604084019590955250506060015292915050565b6020808252602c908201527f43616d706169676e436f6e74726163743a3a636c61696d3a2043616d7061696e60408201526b19c81a5cc81b9bdd08115b9960a21b606082015260800190565b85815284602082015260018060a01b038416604082015260c06060820152600f60c08201526e1cdd5c195c99985b97ddd85b1b195d608a1b60e08201526000610100806080840152612d938184018661261c565b905082810360a0840152612c7f818561261c565b84815283602082015260018060a01b038316604082015260c06060820152600c60c08201526b185cdcd95d17ddd85b1b195d60a21b60e08201526000610100806080840152600081840152506101208060a08401526128e38184018561261c565b608081526000612e1b608083018661261c565b8281036020840152600e81526d18dc99585d1bdc97ddd85b1b195d60921b60208201526040810191505060018060a01b0384166040830152826060830152949350505050565b6000808354612e6f81612b82565b60018281168015612e875760018114612e9857612ec7565b60ff19841687528287019450612ec7565b8760005260208060002060005b85811015612ebe5781548a820152908401908201612ea5565b50505082870194505b50929695505050505050565b634e487b7160e01b600052603260045260246000fd5b6000600019821415612efd57612efd612a32565b5060010190565b600082612f1357612f13612a67565b500690565b60008154612f2581612b82565b808552602060018381168015612f425760018114612f5657612f84565b60ff19851688840152604088019550612f84565b866000528260002060005b85811015612f7c5781548a8201860152908301908401612f61565b890184019650505b505050505092915050565b604081526000612fa2604083018561261c565b8281036020840152610160808252612fbc81830186612f18565b90508181036020830152612fd38160018701612f18565b90506002850154604083015260038501546060830152612ff7600486015460ff1690565b613004608084018261265e565b50600585015460a0830152600685015460c0830152600785015460e083015260088501546101008301526009850154610120830152600a9094015460ff1615156101409091015250909291505056fe43616d706169676e436f6e74726163743a3a66756e6443616d706169676e3a2043616d706169676e436f6e74726163743a3a63726561746543616d706169676ea26469706673582212201b6e68effb1e726aad27644476a9520783e415f69328ad47c58e54914fcbceb164736f6c63430008090033",
  "linkReferences": {},
  "deployedLinkReferences": {}
}